{
  "_format": "hh-sol-artifact-1",
  "contractName": "SupplyChain",
  "sourceName": "contracts/SupplyChain.sol",
  "abi": [
    {
      "inputs": [],
      "stateMutability": "nonpayable",
      "type": "constructor"
    },
    {
      "anonymous": false,
      "inputs": [
        {
          "indexed": true,
          "internalType": "uint256",
          "name": "id",
          "type": "uint256"
        },
        {
          "indexed": true,
          "internalType": "address",
          "name": "farmer",
          "type": "address"
        },
        {
          "indexed": false,
          "internalType": "string",
          "name": "batchId",
          "type": "string"
        },
        {
          "indexed": false,
          "internalType": "enum SupplyChain.Category",
          "name": "category",
          "type": "uint8"
        }
      ],
      "name": "BatchCreated",
      "type": "event"
    },
    {
      "anonymous": false,
      "inputs": [
        {
          "indexed": true,
          "internalType": "uint256",
          "name": "id",
          "type": "uint256"
        },
        {
          "indexed": false,
          "internalType": "enum SupplyChain.BatchStatus",
          "name": "status",
          "type": "uint8"
        }
      ],
      "name": "BatchStatusUpdated",
      "type": "event"
    },
    {
      "anonymous": false,
      "inputs": [
        {
          "indexed": true,
          "internalType": "bytes32",
          "name": "role",
          "type": "bytes32"
        },
        {
          "indexed": true,
          "internalType": "bytes32",
          "name": "previousAdminRole",
          "type": "bytes32"
        },
        {
          "indexed": true,
          "internalType": "bytes32",
          "name": "newAdminRole",
          "type": "bytes32"
        }
      ],
      "name": "RoleAdminChanged",
      "type": "event"
    },
    {
      "anonymous": false,
      "inputs": [
        {
          "indexed": true,
          "internalType": "bytes32",
          "name": "role",
          "type": "bytes32"
        },
        {
          "indexed": true,
          "internalType": "address",
          "name": "account",
          "type": "address"
        },
        {
          "indexed": true,
          "internalType": "address",
          "name": "sender",
          "type": "address"
        }
      ],
      "name": "RoleGranted",
      "type": "event"
    },
    {
      "anonymous": false,
      "inputs": [
        {
          "indexed": true,
          "internalType": "bytes32",
          "name": "role",
          "type": "bytes32"
        },
        {
          "indexed": true,
          "internalType": "address",
          "name": "account",
          "type": "address"
        },
        {
          "indexed": true,
          "internalType": "address",
          "name": "sender",
          "type": "address"
        }
      ],
      "name": "RoleRevoked",
      "type": "event"
    },
    {
      "inputs": [],
      "name": "CONSUMER_ROLE",
      "outputs": [
        {
          "internalType": "bytes32",
          "name": "",
          "type": "bytes32"
        }
      ],
      "stateMutability": "view",
      "type": "function"
    },
    {
      "inputs": [],
      "name": "DEFAULT_ADMIN_ROLE",
      "outputs": [
        {
          "internalType": "bytes32",
          "name": "",
          "type": "bytes32"
        }
      ],
      "stateMutability": "view",
      "type": "function"
    },
    {
      "inputs": [],
      "name": "DISTRIBUTOR_ROLE",
      "outputs": [
        {
          "internalType": "bytes32",
          "name": "",
          "type": "bytes32"
        }
      ],
      "stateMutability": "view",
      "type": "function"
    },
    {
      "inputs": [],
      "name": "FARMER_ROLE",
      "outputs": [
        {
          "internalType": "bytes32",
          "name": "",
          "type": "bytes32"
        }
      ],
      "stateMutability": "view",
      "type": "function"
    },
    {
      "inputs": [],
      "name": "RETAILER_ROLE",
      "outputs": [
        {
          "internalType": "bytes32",
          "name": "",
          "type": "bytes32"
        }
      ],
      "stateMutability": "view",
      "type": "function"
    },
    {
      "inputs": [
        {
          "internalType": "uint256",
          "name": "_id",
          "type": "uint256"
        },
        {
          "internalType": "address",
          "name": "_distributor",
          "type": "address"
        }
      ],
      "name": "assignDistributor",
      "outputs": [],
      "stateMutability": "nonpayable",
      "type": "function"
    },
    {
      "inputs": [
        {
          "internalType": "uint256",
          "name": "",
          "type": "uint256"
        }
      ],
      "name": "batchCore",
      "outputs": [
        {
          "internalType": "uint256",
          "name": "id",
          "type": "uint256"
        },
        {
          "internalType": "string",
          "name": "batchId",
          "type": "string"
        },
        {
          "internalType": "string",
          "name": "certificateId",
          "type": "string"
        },
        {
          "internalType": "enum SupplyChain.Category",
          "name": "category",
          "type": "uint8"
        },
        {
          "internalType": "string",
          "name": "crop",
          "type": "string"
        },
        {
          "internalType": "string",
          "name": "origin",
          "type": "string"
        },
        {
          "internalType": "uint256",
          "name": "harvestDate",
          "type": "uint256"
        },
        {
          "internalType": "address",
          "name": "farmer",
          "type": "address"
        },
        {
          "internalType": "enum SupplyChain.BatchStatus",
          "name": "status",
          "type": "uint8"
        },
        {
          "internalType": "uint256",
          "name": "createdAt",
          "type": "uint256"
        },
        {
          "internalType": "uint256",
          "name": "updatedAt",
          "type": "uint256"
        }
      ],
      "stateMutability": "view",
      "type": "function"
    },
    {
      "inputs": [
        {
          "internalType": "string",
          "name": "",
          "type": "string"
        }
      ],
      "name": "batchIdToIndex",
      "outputs": [
        {
          "internalType": "uint256",
          "name": "",
          "type": "uint256"
        }
      ],
      "stateMutability": "view",
      "type": "function"
    },
    {
      "inputs": [
        {
          "internalType": "string",
          "name": "_batchId",
          "type": "string"
        },
        {
          "internalType": "string",
          "name": "_certificateId",
          "type": "string"
        },
        {
          "internalType": "enum SupplyChain.Category",
          "name": "_category",
          "type": "uint8"
        },
        {
          "internalType": "string",
          "name": "_crop",
          "type": "string"
        },
        {
          "internalType": "string",
          "name": "_origin",
          "type": "string"
        },
        {
          "internalType": "uint256",
          "name": "_harvestDate",
          "type": "uint256"
        }
      ],
      "name": "createBatch",
      "outputs": [],
      "stateMutability": "nonpayable",
      "type": "function"
    },
    {
      "inputs": [
        {
          "internalType": "uint256",
          "name": "_id",
          "type": "uint256"
        }
      ],
      "name": "getFullBatch",
      "outputs": [
        {
          "components": [
            {
              "internalType": "uint256",
              "name": "id",
              "type": "uint256"
            },
            {
              "internalType": "string",
              "name": "batchId",
              "type": "string"
            },
            {
              "internalType": "string",
              "name": "certificateId",
              "type": "string"
            },
            {
              "internalType": "enum SupplyChain.Category",
              "name": "category",
              "type": "uint8"
            },
            {
              "internalType": "string",
              "name": "crop",
              "type": "string"
            },
            {
              "internalType": "string",
              "name": "origin",
              "type": "string"
            },
            {
              "internalType": "uint256",
              "name": "harvestDate",
              "type": "uint256"
            },
            {
              "internalType": "address",
              "name": "farmer",
              "type": "address"
            },
            {
              "internalType": "enum SupplyChain.BatchStatus",
              "name": "status",
              "type": "uint8"
            },
            {
              "internalType": "uint256",
              "name": "createdAt",
              "type": "uint256"
            },
            {
              "internalType": "uint256",
              "name": "updatedAt",
              "type": "uint256"
            }
          ],
          "internalType": "struct SupplyChain.BatchCore",
          "name": "",
          "type": "tuple"
        },
        {
          "components": [
            {
              "internalType": "address",
              "name": "distributor",
              "type": "address"
            },
            {
              "internalType": "address",
              "name": "retailer",
              "type": "address"
            },
            {
              "internalType": "address",
              "name": "consumer",
              "type": "address"
            },
            {
              "internalType": "string",
              "name": "destination",
              "type": "string"
            },
            {
              "internalType": "string",
              "name": "storageConditions",
              "type": "string"
            }
          ],
          "internalType": "struct SupplyChain.Logistics",
          "name": "",
          "type": "tuple"
        },
        {
          "components": [
            {
              "internalType": "string",
              "name": "farmerName",
              "type": "string"
            },
            {
              "internalType": "string",
              "name": "retailerName",
              "type": "string"
            },
            {
              "internalType": "uint256",
              "name": "packagingDate",
              "type": "uint256"
            },
            {
              "internalType": "uint256",
              "name": "arrivalDate",
              "type": "uint256"
            },
            {
              "internalType": "uint256",
              "name": "stockQuantity",
              "type": "uint256"
            },
            {
              "internalType": "uint256",
              "name": "sellingPrice",
              "type": "uint256"
            },
            {
              "internalType": "bool",
              "name": "certificationVerified",
              "type": "bool"
            },
            {
              "internalType": "uint256",
              "name": "weight",
              "type": "uint256"
            },
            {
              "internalType": "string",
              "name": "quality",
              "type": "string"
            }
          ],
          "internalType": "struct SupplyChain.RetailInfo",
          "name": "",
          "type": "tuple"
        }
      ],
      "stateMutability": "view",
      "type": "function"
    },
    {
      "inputs": [
        {
          "internalType": "bytes32",
          "name": "role",
          "type": "bytes32"
        }
      ],
      "name": "getRoleAdmin",
      "outputs": [
        {
          "internalType": "bytes32",
          "name": "",
          "type": "bytes32"
        }
      ],
      "stateMutability": "view",
      "type": "function"
    },
    {
      "inputs": [
        {
          "internalType": "bytes32",
          "name": "role",
          "type": "bytes32"
        },
        {
          "internalType": "address",
          "name": "account",
          "type": "address"
        }
      ],
      "name": "grantRole",
      "outputs": [],
      "stateMutability": "nonpayable",
      "type": "function"
    },
    {
      "inputs": [
        {
          "internalType": "bytes32",
          "name": "role",
          "type": "bytes32"
        },
        {
          "internalType": "address",
          "name": "account",
          "type": "address"
        }
      ],
      "name": "hasRole",
      "outputs": [
        {
          "internalType": "bool",
          "name": "",
          "type": "bool"
        }
      ],
      "stateMutability": "view",
      "type": "function"
    },
    {
      "inputs": [
        {
          "internalType": "uint256",
          "name": "",
          "type": "uint256"
        }
      ],
      "name": "logistics",
      "outputs": [
        {
          "internalType": "address",
          "name": "distributor",
          "type": "address"
        },
        {
          "internalType": "address",
          "name": "retailer",
          "type": "address"
        },
        {
          "internalType": "address",
          "name": "consumer",
          "type": "address"
        },
        {
          "internalType": "string",
          "name": "destination",
          "type": "string"
        },
        {
          "internalType": "string",
          "name": "storageConditions",
          "type": "string"
        }
      ],
      "stateMutability": "view",
      "type": "function"
    },
    {
      "inputs": [
        {
          "internalType": "uint256",
          "name": "_id",
          "type": "uint256"
        }
      ],
      "name": "markProcessed",
      "outputs": [],
      "stateMutability": "nonpayable",
      "type": "function"
    },
    {
      "inputs": [
        {
          "internalType": "uint256",
          "name": "_id",
          "type": "uint256"
        },
        {
          "internalType": "address",
          "name": "_retailer",
          "type": "address"
        }
      ],
      "name": "packageBatch",
      "outputs": [],
      "stateMutability": "nonpayable",
      "type": "function"
    },
    {
      "inputs": [
        {
          "internalType": "uint256",
          "name": "_id",
          "type": "uint256"
        }
      ],
      "name": "putForSale",
      "outputs": [],
      "stateMutability": "nonpayable",
      "type": "function"
    },
    {
      "inputs": [
        {
          "internalType": "bytes32",
          "name": "role",
          "type": "bytes32"
        },
        {
          "internalType": "address",
          "name": "account",
          "type": "address"
        }
      ],
      "name": "renounceRole",
      "outputs": [],
      "stateMutability": "nonpayable",
      "type": "function"
    },
    {
      "inputs": [
        {
          "internalType": "uint256",
          "name": "",
          "type": "uint256"
        }
      ],
      "name": "retail",
      "outputs": [
        {
          "internalType": "string",
          "name": "farmerName",
          "type": "string"
        },
        {
          "internalType": "string",
          "name": "retailerName",
          "type": "string"
        },
        {
          "internalType": "uint256",
          "name": "packagingDate",
          "type": "uint256"
        },
        {
          "internalType": "uint256",
          "name": "arrivalDate",
          "type": "uint256"
        },
        {
          "internalType": "uint256",
          "name": "stockQuantity",
          "type": "uint256"
        },
        {
          "internalType": "uint256",
          "name": "sellingPrice",
          "type": "uint256"
        },
        {
          "internalType": "bool",
          "name": "certificationVerified",
          "type": "bool"
        },
        {
          "internalType": "uint256",
          "name": "weight",
          "type": "uint256"
        },
        {
          "internalType": "string",
          "name": "quality",
          "type": "string"
        }
      ],
      "stateMutability": "view",
      "type": "function"
    },
    {
      "inputs": [
        {
          "internalType": "bytes32",
          "name": "role",
          "type": "bytes32"
        },
        {
          "internalType": "address",
          "name": "account",
          "type": "address"
        }
      ],
      "name": "revokeRole",
      "outputs": [],
      "stateMutability": "nonpayable",
      "type": "function"
    },
    {
      "inputs": [
        {
          "internalType": "uint256",
          "name": "_id",
          "type": "uint256"
        },
        {
          "internalType": "address",
          "name": "_consumer",
          "type": "address"
        }
      ],
      "name": "sell",
      "outputs": [],
      "stateMutability": "nonpayable",
      "type": "function"
    },
    {
      "inputs": [
        {
          "internalType": "uint256",
          "name": "_id",
          "type": "uint256"
        },
        {
          "internalType": "string",
          "name": "_destination",
          "type": "string"
        },
        {
          "internalType": "string",
          "name": "_storageConditions",
          "type": "string"
        }
      ],
      "name": "setLogistics",
      "outputs": [],
      "stateMutability": "nonpayable",
      "type": "function"
    },
    {
      "inputs": [
        {
          "internalType": "bytes4",
          "name": "interfaceId",
          "type": "bytes4"
        }
      ],
      "name": "supportsInterface",
      "outputs": [
        {
          "internalType": "bool",
          "name": "",
          "type": "bool"
        }
      ],
      "stateMutability": "view",
      "type": "function"
    },
    {
      "inputs": [],
      "name": "totalBatches",
      "outputs": [
        {
          "internalType": "uint256",
          "name": "",
          "type": "uint256"
        }
      ],
      "stateMutability": "view",
      "type": "function"
    },
    {
      "inputs": [
        {
          "internalType": "uint256",
          "name": "_id",
          "type": "uint256"
        },
        {
          "internalType": "uint256",
          "name": "_arrivalDate",
          "type": "uint256"
        },
        {
          "internalType": "uint256",
          "name": "_stockQuantity",
          "type": "uint256"
        },
        {
          "internalType": "uint256",
          "name": "_sellingPrice",
          "type": "uint256"
        },
        {
          "internalType": "string",
          "name": "_retailerName",
          "type": "string"
        }
      ],
      "name": "updateRetailInfo",
      "outputs": [],
      "stateMutability": "nonpayable",
      "type": "function"
    },
    {
      "inputs": [
        {
          "internalType": "uint256",
          "name": "_id",
          "type": "uint256"
        },
        {
          "internalType": "bool",
          "name": "_verified",
          "type": "bool"
        }
      ],
      "name": "verifyCertification",
      "outputs": [],
      "stateMutability": "nonpayable",
      "type": "function"
    }
  ],
  "bytecode": "0x60806040523480156200001157600080fd5b50620000276000801b336200002d60201b60201c565b62000190565b6200003f82826200011e60201b60201c565b6200011a57600160008084815260200190815260200160002060000160008373ffffffffffffffffffffffffffffffffffffffff1673ffffffffffffffffffffffffffffffffffffffff16815260200190815260200160002060006101000a81548160ff021916908315150217905550620000bf6200018860201b60201c565b73ffffffffffffffffffffffffffffffffffffffff168173ffffffffffffffffffffffffffffffffffffffff16837f2f8788117e7eff1d82e926ec794901d17c78024a50270940304540a733656f0d60405160405180910390a45b5050565b600080600084815260200190815260200160002060000160008373ffffffffffffffffffffffffffffffffffffffff1673ffffffffffffffffffffffffffffffffffffffff16815260200190815260200160002060009054906101000a900460ff16905092915050565b600033905090565b61400780620001a06000396000f3fe608060405234801561001057600080fd5b506004361061018d5760003560e01c806350dd6d17116100de578063aa9a533f11610097578063d547741f11610071578063d547741f146104ba578063ea7d74e9146104d6578063f0bd87cc146104f2578063f3943970146105105761018d565b8063aa9a533f1461044a578063b201cca414610466578063cce8ee9b1461049e5761018d565b806350dd6d17146103725780635d3053151461038e57806369ff6abb146103aa57806391d14854146103c85780639d12d01c146103f8578063a217fddf1461042c5761018d565b80632f2ff15d1161014b5780633fb678d3116101255780633fb678d3146103005780634189a68e1461031c57806342b86aa7146103385780634bc02da6146103545761018d565b80632f2ff15d1461028e5780633309ef08146102aa57806336568abe146102e45761018d565b8062c91e8c1461019257806301ffc9a7146101c45780631e28addd146101f45780631f078ced146102245780632115e7bf14610240578063248a9ca31461025e575b600080fd5b6101ac60048036038101906101a791906129fa565b61052e565b6040516101bb93929190612e35565b60405180910390f35b6101de60048036038101906101d99190612ed9565b610d1d565b6040516101eb9190612f15565b60405180910390f35b61020e60048036038101906102099190613065565b610d97565b60405161021b91906130bd565b60405180910390f35b61023e600480360381019061023991906129fa565b610dc5565b005b610248610ed7565b60405161025591906130f1565b60405180910390f35b61027860048036038101906102739190613138565b610efb565b60405161028591906130f1565b60405180910390f35b6102a860048036038101906102a39190613191565b610f1a565b005b6102c460048036038101906102bf91906129fa565b610f3b565b6040516102db9b9a99989796959493929190613248565b60405180910390f35b6102fe60048036038101906102f99190613191565b6111ef565b005b61031a6004803603810190610315919061330f565b611272565b005b610336600480360381019061033191906133a6565b611355565b005b610352600480360381019061034d91906133a6565b61152c565b005b61035c611703565b60405161036991906130f1565b60405180910390f35b61038c600480360381019061038791906133e6565b611727565b005b6103a860048036038101906103a3919061349d565b61180b565b005b6103b26118d4565b6040516103bf91906130bd565b60405180910390f35b6103e260048036038101906103dd9190613191565b6118de565b6040516103ef9190612f15565b60405180910390f35b610412600480360381019061040d91906129fa565b611948565b6040516104239594939291906134dd565b60405180910390f35b610434611aee565b60405161044191906130f1565b60405180910390f35b610464600480360381019061045f91906133a6565b611af5565b005b610480600480360381019061047b91906129fa565b611ccc565b6040516104959998979695949392919061353e565b60405180910390f35b6104b860048036038101906104b391906129fa565b611ebf565b005b6104d460048036038101906104cf9190613191565b611fd0565b005b6104f060048036038101906104eb9190613605565b611ff1565b005b6104fa6122e0565b60405161050791906130f1565b60405180910390f35b610518612304565b60405161052591906130f1565b60405180910390f35b61053661285d565b61053e6128f1565b610546612962565b6002600085815260200190815260200160002060036000868152602001908152602001600020600460008781526020019081526020016000208260405180610160016040529081600082015481526020016001820180546105a690613731565b80601f01602080910402602001604051908101604052809291908181526020018280546105d290613731565b801561061f5780601f106105f45761010080835404028352916020019161061f565b820191906000526020600020905b81548152906001019060200180831161060257829003601f168201915b5050505050815260200160028201805461063890613731565b80601f016020809104026020016040519081016040528092919081815260200182805461066490613731565b80156106b15780601f10610686576101008083540402835291602001916106b1565b820191906000526020600020905b81548152906001019060200180831161069457829003601f168201915b505050505081526020016003820160009054906101000a900460ff1660088111156106df576106de612ac6565b5b60088111156106f1576106f0612ac6565b5b815260200160048201805461070590613731565b80601f016020809104026020016040519081016040528092919081815260200182805461073190613731565b801561077e5780601f106107535761010080835404028352916020019161077e565b820191906000526020600020905b81548152906001019060200180831161076157829003601f168201915b5050505050815260200160058201805461079790613731565b80601f01602080910402602001604051908101604052809291908181526020018280546107c390613731565b80156108105780601f106107e557610100808354040283529160200191610810565b820191906000526020600020905b8154815290600101906020018083116107f357829003601f168201915b50505050508152602001600682015481526020016007820160009054906101000a900473ffffffffffffffffffffffffffffffffffffffff1673ffffffffffffffffffffffffffffffffffffffff1673ffffffffffffffffffffffffffffffffffffffff1681526020016007820160149054906101000a900460ff16600681111561089e5761089d612ac6565b5b60068111156108b0576108af612ac6565b5b8152602001600882015481526020016009820154815250509250816040518060a00160405290816000820160009054906101000a900473ffffffffffffffffffffffffffffffffffffffff1673ffffffffffffffffffffffffffffffffffffffff1673ffffffffffffffffffffffffffffffffffffffff1681526020016001820160009054906101000a900473ffffffffffffffffffffffffffffffffffffffff1673ffffffffffffffffffffffffffffffffffffffff1673ffffffffffffffffffffffffffffffffffffffff1681526020016002820160009054906101000a900473ffffffffffffffffffffffffffffffffffffffff1673ffffffffffffffffffffffffffffffffffffffff1673ffffffffffffffffffffffffffffffffffffffff1681526020016003820180546109e890613731565b80601f0160208091040260200160405190810160405280929190818152602001828054610a1490613731565b8015610a615780601f10610a3657610100808354040283529160200191610a61565b820191906000526020600020905b815481529060010190602001808311610a4457829003601f168201915b50505050508152602001600482018054610a7a90613731565b80601f0160208091040260200160405190810160405280929190818152602001828054610aa690613731565b8015610af35780601f10610ac857610100808354040283529160200191610af3565b820191906000526020600020905b815481529060010190602001808311610ad657829003601f168201915b50505050508152505091508060405180610120016040529081600082018054610b1b90613731565b80601f0160208091040260200160405190810160405280929190818152602001828054610b4790613731565b8015610b945780601f10610b6957610100808354040283529160200191610b94565b820191906000526020600020905b815481529060010190602001808311610b7757829003601f168201915b50505050508152602001600182018054610bad90613731565b80601f0160208091040260200160405190810160405280929190818152602001828054610bd990613731565b8015610c265780601f10610bfb57610100808354040283529160200191610c26565b820191906000526020600020905b815481529060010190602001808311610c0957829003601f168201915b50505050508152602001600282015481526020016003820154815260200160048201548152602001600582015481526020016006820160009054906101000a900460ff1615151515815260200160078201548152602001600882018054610c8c90613731565b80601f0160208091040260200160405190810160405280929190818152602001828054610cb890613731565b8015610d055780601f10610cda57610100808354040283529160200191610d05565b820191906000526020600020905b815481529060010190602001808311610ce857829003601f168201915b50505050508152505090509250925092509193909250565b60007f7965db0b000000000000000000000000000000000000000000000000000000007bffffffffffffffffffffffffffffffffffffffffffffffffffffffff1916827bffffffffffffffffffffffffffffffffffffffffffffffffffffffff19161480610d905750610d8f82612328565b5b9050919050565b6005818051602081018201805184825260208301602085012081835280955050505050506000915090505481565b7f2a5f906c256a5d799494fcd066e1f6c077689de1cdb65052a1624de4bace99bf610def81612392565b600082118015610e0157506001548211155b610e40576040517f08c379a0000000000000000000000000000000000000000000000000000000008152600401610e37906137ae565b60405180910390fd5b60046002600084815260200190815260200160002060070160146101000a81548160ff02191690836006811115610e7a57610e79612ac6565b5b0217905550426002600084815260200190815260200160002060090181905550817fcf4d4f3dcd5294f4d19269f489155c2187699f4a9fb9004b6a303752b00b282f6004604051610ecb91906137ce565b60405180910390a25050565b7f2a5f906c256a5d799494fcd066e1f6c077689de1cdb65052a1624de4bace99bf81565b6000806000838152602001908152602001600020600101549050919050565b610f2382610efb565b610f2c81612392565b610f3683836123a6565b505050565b6002602052806000526040600020600091509050806000015490806001018054610f6490613731565b80601f0160208091040260200160405190810160405280929190818152602001828054610f9090613731565b8015610fdd5780601f10610fb257610100808354040283529160200191610fdd565b820191906000526020600020905b815481529060010190602001808311610fc057829003601f168201915b505050505090806002018054610ff290613731565b80601f016020809104026020016040519081016040528092919081815260200182805461101e90613731565b801561106b5780601f106110405761010080835404028352916020019161106b565b820191906000526020600020905b81548152906001019060200180831161104e57829003601f168201915b5050505050908060030160009054906101000a900460ff169080600401805461109390613731565b80601f01602080910402602001604051908101604052809291908181526020018280546110bf90613731565b801561110c5780601f106110e15761010080835404028352916020019161110c565b820191906000526020600020905b8154815290600101906020018083116110ef57829003601f168201915b50505050509080600501805461112190613731565b80601f016020809104026020016040519081016040528092919081815260200182805461114d90613731565b801561119a5780601f1061116f5761010080835404028352916020019161119a565b820191906000526020600020905b81548152906001019060200180831161117d57829003601f168201915b5050505050908060060154908060070160009054906101000a900473ffffffffffffffffffffffffffffffffffffffff16908060070160149054906101000a900460ff1690806008015490806009015490508b565b6111f7612486565b73ffffffffffffffffffffffffffffffffffffffff168173ffffffffffffffffffffffffffffffffffffffff1614611264576040517f08c379a000000000000000000000000000000000000000000000000000000000815260040161125b9061385b565b60405180910390fd5b61126e828261248e565b5050565b7f2a5f906c256a5d799494fcd066e1f6c077689de1cdb65052a1624de4bace99bf61129c81612392565b6000861180156112ae57506001548611155b6112ed576040517f08c379a00000000000000000000000000000000000000000000000000000000081526004016112e4906137ae565b60405180910390fd5b6000600460008881526020019081526020016000209050858160030181905550848160040181905550838160050181905550828160010190816113309190613a27565b5042600260008981526020019081526020016000206009018190555050505050505050565b7f2a5f906c256a5d799494fcd066e1f6c077689de1cdb65052a1624de4bace99bf61137f81612392565b60008311801561139157506001548311155b6113d0576040517f08c379a00000000000000000000000000000000000000000000000000000000081526004016113c7906137ae565b60405180910390fd5b600073ffffffffffffffffffffffffffffffffffffffff168273ffffffffffffffffffffffffffffffffffffffff160361143f576040517f08c379a000000000000000000000000000000000000000000000000000000000815260040161143690613b45565b60405180910390fd5b816003600085815260200190815260200160002060020160006101000a81548173ffffffffffffffffffffffffffffffffffffffff021916908373ffffffffffffffffffffffffffffffffffffffff16021790555060056002600085815260200190815260200160002060070160146101000a81548160ff021916908360068111156114ce576114cd612ac6565b5b0217905550426002600085815260200190815260200160002060090181905550827fcf4d4f3dcd5294f4d19269f489155c2187699f4a9fb9004b6a303752b00b282f600560405161151f91906137ce565b60405180910390a2505050565b7ffbd454f36a7e1a388bd6fc3ab10d434aa4578f811acbbcf33afb1c697486313c61155681612392565b60008311801561156857506001548311155b6115a7576040517f08c379a000000000000000000000000000000000000000000000000000000000815260040161159e906137ae565b60405180910390fd5b600073ffffffffffffffffffffffffffffffffffffffff168273ffffffffffffffffffffffffffffffffffffffff1603611616576040517f08c379a000000000000000000000000000000000000000000000000000000000815260040161160d90613bb1565b60405180910390fd5b816003600085815260200190815260200160002060010160006101000a81548173ffffffffffffffffffffffffffffffffffffffff021916908373ffffffffffffffffffffffffffffffffffffffff16021790555060036002600085815260200190815260200160002060070160146101000a81548160ff021916908360068111156116a5576116a4612ac6565b5b0217905550426002600085815260200190815260200160002060090181905550827fcf4d4f3dcd5294f4d19269f489155c2187699f4a9fb9004b6a303752b00b282f60036040516116f691906137ce565b60405180910390a2505050565b7f9d56108290ea0bc9c5c59c3ad357dca9d1b29ed7f3ae1443bef2fa2159bdf5e881565b7f7c6181838a71a779e445600d4c6ecbe16bacf2b3c5bda69c29fada66d1b645d161175181612392565b60008411801561176357506001548411155b6117a2576040517f08c379a0000000000000000000000000000000000000000000000000000000008152600401611799906137ae565b60405180910390fd5b826003600086815260200190815260200160002060030190816117c59190613a27565b50816003600086815260200190815260200160002060040190816117e99190613a27565b5042600260008681526020019081526020016000206009018190555050505050565b7f2a5f906c256a5d799494fcd066e1f6c077689de1cdb65052a1624de4bace99bf61183581612392565b60008311801561184757506001548311155b611886576040517f08c379a000000000000000000000000000000000000000000000000000000000815260040161187d906137ae565b60405180910390fd5b816004600085815260200190815260200160002060060160006101000a81548160ff021916908315150217905550426002600085815260200190815260200160002060090181905550505050565b6000600154905090565b600080600084815260200190815260200160002060000160008373ffffffffffffffffffffffffffffffffffffffff1673ffffffffffffffffffffffffffffffffffffffff16815260200190815260200160002060009054906101000a900460ff16905092915050565b60036020528060005260406000206000915090508060000160009054906101000a900473ffffffffffffffffffffffffffffffffffffffff16908060010160009054906101000a900473ffffffffffffffffffffffffffffffffffffffff16908060020160009054906101000a900473ffffffffffffffffffffffffffffffffffffffff16908060030180546119dd90613731565b80601f0160208091040260200160405190810160405280929190818152602001828054611a0990613731565b8015611a565780601f10611a2b57610100808354040283529160200191611a56565b820191906000526020600020905b815481529060010190602001808311611a3957829003601f168201915b505050505090806004018054611a6b90613731565b80601f0160208091040260200160405190810160405280929190818152602001828054611a9790613731565b8015611ae45780601f10611ab957610100808354040283529160200191611ae4565b820191906000526020600020905b815481529060010190602001808311611ac757829003601f168201915b5050505050905085565b6000801b81565b7f7c6181838a71a779e445600d4c6ecbe16bacf2b3c5bda69c29fada66d1b645d1611b1f81612392565b600083118015611b3157506001548311155b611b70576040517f08c379a0000000000000000000000000000000000000000000000000000000008152600401611b67906137ae565b60405180910390fd5b600073ffffffffffffffffffffffffffffffffffffffff168273ffffffffffffffffffffffffffffffffffffffff1603611bdf576040517f08c379a0000000000000000000000000000000000000000000000000000000008152600401611bd690613c1d565b60405180910390fd5b816003600085815260200190815260200160002060000160006101000a81548173ffffffffffffffffffffffffffffffffffffffff021916908373ffffffffffffffffffffffffffffffffffffffff16021790555060016002600085815260200190815260200160002060070160146101000a81548160ff02191690836006811115611c6e57611c6d612ac6565b5b0217905550426002600085815260200190815260200160002060090181905550827fcf4d4f3dcd5294f4d19269f489155c2187699f4a9fb9004b6a303752b00b282f6001604051611cbf91906137ce565b60405180910390a2505050565b6004602052806000526040600020600091509050806000018054611cef90613731565b80601f0160208091040260200160405190810160405280929190818152602001828054611d1b90613731565b8015611d685780601f10611d3d57610100808354040283529160200191611d68565b820191906000526020600020905b815481529060010190602001808311611d4b57829003601f168201915b505050505090806001018054611d7d90613731565b80601f0160208091040260200160405190810160405280929190818152602001828054611da990613731565b8015611df65780601f10611dcb57610100808354040283529160200191611df6565b820191906000526020600020905b815481529060010190602001808311611dd957829003601f168201915b5050505050908060020154908060030154908060040154908060050154908060060160009054906101000a900460ff1690806007015490806008018054611e3c90613731565b80601f0160208091040260200160405190810160405280929190818152602001828054611e6890613731565b8015611eb55780601f10611e8a57610100808354040283529160200191611eb5565b820191906000526020600020905b815481529060010190602001808311611e9857829003601f168201915b5050505050905089565b7ffbd454f36a7e1a388bd6fc3ab10d434aa4578f811acbbcf33afb1c697486313c611ee981612392565b600082118015611efb57506001548211155b611f3a576040517f08c379a0000000000000000000000000000000000000000000000000000000008152600401611f31906137ae565b60405180910390fd5b600280600084815260200190815260200160002060070160146101000a81548160ff02191690836006811115611f7357611f72612ac6565b5b0217905550426002600084815260200190815260200160002060090181905550817fcf4d4f3dcd5294f4d19269f489155c2187699f4a9fb9004b6a303752b00b282f6002604051611fc491906137ce565b60405180910390a25050565b611fd982610efb565b611fe281612392565b611fec838361248e565b505050565b7f7c6181838a71a779e445600d4c6ecbe16bacf2b3c5bda69c29fada66d1b645d161201b81612392565b600060058860405161202d9190613c79565b9081526020016040518091039020541461207c576040517f08c379a000000000000000000000000000000000000000000000000000000000815260040161207390613cdc565b60405180910390fd5b6001600081548092919061208f90613d2b565b9190505550600060015490506040518061016001604052808281526020018981526020018881526020018760088111156120cc576120cb612ac6565b5b81526020018681526020018581526020018481526020013373ffffffffffffffffffffffffffffffffffffffff1681526020016000600681111561211357612112612ac6565b5b815260200142815260200142815250600260008381526020019081526020016000206000820151816000015560208201518160010190816121549190613a27565b50604082015181600201908161216a9190613a27565b5060608201518160030160006101000a81548160ff0219169083600881111561219657612195612ac6565b5b021790555060808201518160040190816121b09190613a27565b5060a08201518160050190816121c69190613a27565b5060c0820151816006015560e08201518160070160006101000a81548173ffffffffffffffffffffffffffffffffffffffff021916908373ffffffffffffffffffffffffffffffffffffffff1602179055506101008201518160070160146101000a81548160ff0219169083600681111561224457612243612ac6565b5b021790555061012082015181600801556101408201518160090155905050806005896040516122739190613c79565b9081526020016040518091039020819055503373ffffffffffffffffffffffffffffffffffffffff16817fbcb997a4a7c4d7407d25678685f447ac0cdd1a0cf31d196469ddd0be50efb6278a896040516122ce929190613d73565b60405180910390a35050505050505050565b7ffbd454f36a7e1a388bd6fc3ab10d434aa4578f811acbbcf33afb1c697486313c81565b7f7c6181838a71a779e445600d4c6ecbe16bacf2b3c5bda69c29fada66d1b645d181565b60007f01ffc9a7000000000000000000000000000000000000000000000000000000007bffffffffffffffffffffffffffffffffffffffffffffffffffffffff1916827bffffffffffffffffffffffffffffffffffffffffffffffffffffffff1916149050919050565b6123a38161239e612486565b61256f565b50565b6123b082826118de565b61248257600160008084815260200190815260200160002060000160008373ffffffffffffffffffffffffffffffffffffffff1673ffffffffffffffffffffffffffffffffffffffff16815260200190815260200160002060006101000a81548160ff021916908315150217905550612427612486565b73ffffffffffffffffffffffffffffffffffffffff168173ffffffffffffffffffffffffffffffffffffffff16837f2f8788117e7eff1d82e926ec794901d17c78024a50270940304540a733656f0d60405160405180910390a45b5050565b600033905090565b61249882826118de565b1561256b57600080600084815260200190815260200160002060000160008373ffffffffffffffffffffffffffffffffffffffff1673ffffffffffffffffffffffffffffffffffffffff16815260200190815260200160002060006101000a81548160ff021916908315150217905550612510612486565b73ffffffffffffffffffffffffffffffffffffffff168173ffffffffffffffffffffffffffffffffffffffff16837ff6391f5c32d9c69d2a47ea670b442974b53935d1edc7fd64eb21e047a839171b60405160405180910390a45b5050565b61257982826118de565b6125f057612586816125f4565b6125948360001c6020612621565b6040516020016125a5929190613e3b565b6040516020818303038152906040526040517f08c379a00000000000000000000000000000000000000000000000000000000081526004016125e79190613e75565b60405180910390fd5b5050565b606061261a8273ffffffffffffffffffffffffffffffffffffffff16601460ff16612621565b9050919050565b6060600060028360026126349190613e97565b61263e9190613ed9565b67ffffffffffffffff81111561265757612656612f3a565b5b6040519080825280601f01601f1916602001820160405280156126895781602001600182028036833780820191505090505b5090507f3000000000000000000000000000000000000000000000000000000000000000816000815181106126c1576126c0613f0d565b5b60200101907effffffffffffffffffffffffffffffffffffffffffffffffffffffffffffff1916908160001a9053507f78000000000000000000000000000000000000000000000000000000000000008160018151811061272557612724613f0d565b5b60200101907effffffffffffffffffffffffffffffffffffffffffffffffffffffffffffff1916908160001a905350600060018460026127659190613e97565b61276f9190613ed9565b90505b600181111561280f577f3031323334353637383961626364656600000000000000000000000000000000600f8616601081106127b1576127b0613f0d565b5b1a60f81b8282815181106127c8576127c7613f0d565b5b60200101907effffffffffffffffffffffffffffffffffffffffffffffffffffffffffffff1916908160001a905350600485901c94508061280890613f3c565b9050612772565b5060008414612853576040517f08c379a000000000000000000000000000000000000000000000000000000000815260040161284a90613fb1565b60405180910390fd5b8091505092915050565b6040518061016001604052806000815260200160608152602001606081526020016000600881111561289257612891612ac6565b5b8152602001606081526020016060815260200160008152602001600073ffffffffffffffffffffffffffffffffffffffff168152602001600060068111156128dd576128dc612ac6565b5b815260200160008152602001600081525090565b6040518060a00160405280600073ffffffffffffffffffffffffffffffffffffffff168152602001600073ffffffffffffffffffffffffffffffffffffffff168152602001600073ffffffffffffffffffffffffffffffffffffffff16815260200160608152602001606081525090565b60405180610120016040528060608152602001606081526020016000815260200160008152602001600081526020016000815260200160001515815260200160008152602001606081525090565b6000604051905090565b600080fd5b600080fd5b6000819050919050565b6129d7816129c4565b81146129e257600080fd5b50565b6000813590506129f4816129ce565b92915050565b600060208284031215612a1057612a0f6129ba565b5b6000612a1e848285016129e5565b91505092915050565b612a30816129c4565b82525050565b600081519050919050565b600082825260208201905092915050565b60005b83811015612a70578082015181840152602081019050612a55565b60008484015250505050565b6000601f19601f8301169050919050565b6000612a9882612a36565b612aa28185612a41565b9350612ab2818560208601612a52565b612abb81612a7c565b840191505092915050565b7f4e487b7100000000000000000000000000000000000000000000000000000000600052602160045260246000fd5b60098110612b0657612b05612ac6565b5b50565b6000819050612b1782612af5565b919050565b6000612b2782612b09565b9050919050565b612b3781612b1c565b82525050565b600073ffffffffffffffffffffffffffffffffffffffff82169050919050565b6000612b6882612b3d565b9050919050565b612b7881612b5d565b82525050565b60078110612b8f57612b8e612ac6565b5b50565b6000819050612ba082612b7e565b919050565b6000612bb082612b92565b9050919050565b612bc081612ba5565b82525050565b600061016083016000830151612bdf6000860182612a27565b5060208301518482036020860152612bf78282612a8d565b91505060408301518482036040860152612c118282612a8d565b9150506060830151612c266060860182612b2e565b5060808301518482036080860152612c3e8282612a8d565b91505060a083015184820360a0860152612c588282612a8d565b91505060c0830151612c6d60c0860182612a27565b5060e0830151612c8060e0860182612b6f565b50610100830151612c95610100860182612bb7565b50610120830151612caa610120860182612a27565b50610140830151612cbf610140860182612a27565b508091505092915050565b600060a083016000830151612ce26000860182612b6f565b506020830151612cf56020860182612b6f565b506040830151612d086040860182612b6f565b5060608301518482036060860152612d208282612a8d565b91505060808301518482036080860152612d3a8282612a8d565b9150508091505092915050565b60008115159050919050565b612d5c81612d47565b82525050565b6000610120830160008301518482036000860152612d808282612a8d565b91505060208301518482036020860152612d9a8282612a8d565b9150506040830151612daf6040860182612a27565b506060830151612dc26060860182612a27565b506080830151612dd56080860182612a27565b5060a0830151612de860a0860182612a27565b5060c0830151612dfb60c0860182612d53565b5060e0830151612e0e60e0860182612a27565b50610100830151848203610100860152612e288282612a8d565b9150508091505092915050565b60006060820190508181036000830152612e4f8186612bc6565b90508181036020830152612e638185612cca565b90508181036040830152612e778184612d62565b9050949350505050565b60007fffffffff0000000000000000000000000000000000000000000000000000000082169050919050565b612eb681612e81565b8114612ec157600080fd5b50565b600081359050612ed381612ead565b92915050565b600060208284031215612eef57612eee6129ba565b5b6000612efd84828501612ec4565b91505092915050565b612f0f81612d47565b82525050565b6000602082019050612f2a6000830184612f06565b92915050565b600080fd5b600080fd5b7f4e487b7100000000000000000000000000000000000000000000000000000000600052604160045260246000fd5b612f7282612a7c565b810181811067ffffffffffffffff82111715612f9157612f90612f3a565b5b80604052505050565b6000612fa46129b0565b9050612fb08282612f69565b919050565b600067ffffffffffffffff821115612fd057612fcf612f3a565b5b612fd982612a7c565b9050602081019050919050565b82818337600083830152505050565b600061300861300384612fb5565b612f9a565b90508281526020810184848401111561302457613023612f35565b5b61302f848285612fe6565b509392505050565b600082601f83011261304c5761304b612f30565b5b813561305c848260208601612ff5565b91505092915050565b60006020828403121561307b5761307a6129ba565b5b600082013567ffffffffffffffff811115613099576130986129bf565b5b6130a584828501613037565b91505092915050565b6130b7816129c4565b82525050565b60006020820190506130d260008301846130ae565b92915050565b6000819050919050565b6130eb816130d8565b82525050565b600060208201905061310660008301846130e2565b92915050565b613115816130d8565b811461312057600080fd5b50565b6000813590506131328161310c565b92915050565b60006020828403121561314e5761314d6129ba565b5b600061315c84828501613123565b91505092915050565b61316e81612b5d565b811461317957600080fd5b50565b60008135905061318b81613165565b92915050565b600080604083850312156131a8576131a76129ba565b5b60006131b685828601613123565b92505060206131c78582860161317c565b9150509250929050565b600082825260208201905092915050565b60006131ed82612a36565b6131f781856131d1565b9350613207818560208601612a52565b61321081612a7c565b840191505092915050565b61322481612b1c565b82525050565b61323381612b5d565b82525050565b61324281612ba5565b82525050565b60006101608201905061325e600083018e6130ae565b8181036020830152613270818d6131e2565b90508181036040830152613284818c6131e2565b9050613293606083018b61321b565b81810360808301526132a5818a6131e2565b905081810360a08301526132b981896131e2565b90506132c860c08301886130ae565b6132d560e083018761322a565b6132e3610100830186613239565b6132f16101208301856130ae565b6132ff6101408301846130ae565b9c9b505050505050505050505050565b600080600080600060a0868803121561332b5761332a6129ba565b5b6000613339888289016129e5565b955050602061334a888289016129e5565b945050604061335b888289016129e5565b935050606061336c888289016129e5565b925050608086013567ffffffffffffffff81111561338d5761338c6129bf565b5b61339988828901613037565b9150509295509295909350565b600080604083850312156133bd576133bc6129ba565b5b60006133cb858286016129e5565b92505060206133dc8582860161317c565b9150509250929050565b6000806000606084860312156133ff576133fe6129ba565b5b600061340d868287016129e5565b935050602084013567ffffffffffffffff81111561342e5761342d6129bf565b5b61343a86828701613037565b925050604084013567ffffffffffffffff81111561345b5761345a6129bf565b5b61346786828701613037565b9150509250925092565b61347a81612d47565b811461348557600080fd5b50565b60008135905061349781613471565b92915050565b600080604083850312156134b4576134b36129ba565b5b60006134c2858286016129e5565b92505060206134d385828601613488565b9150509250929050565b600060a0820190506134f2600083018861322a565b6134ff602083018761322a565b61350c604083018661322a565b818103606083015261351e81856131e2565b9050818103608083015261353281846131e2565b90509695505050505050565b6000610120820190508181036000830152613559818c6131e2565b9050818103602083015261356d818b6131e2565b905061357c604083018a6130ae565b61358960608301896130ae565b61359660808301886130ae565b6135a360a08301876130ae565b6135b060c0830186612f06565b6135bd60e08301856130ae565b8181036101008301526135d081846131e2565b90509a9950505050505050505050565b600981106135ed57600080fd5b50565b6000813590506135ff816135e0565b92915050565b60008060008060008060c08789031215613622576136216129ba565b5b600087013567ffffffffffffffff8111156136405761363f6129bf565b5b61364c89828a01613037565b965050602087013567ffffffffffffffff81111561366d5761366c6129bf565b5b61367989828a01613037565b955050604061368a89828a016135f0565b945050606087013567ffffffffffffffff8111156136ab576136aa6129bf565b5b6136b789828a01613037565b935050608087013567ffffffffffffffff8111156136d8576136d76129bf565b5b6136e489828a01613037565b92505060a06136f589828a016129e5565b9150509295509295509295565b7f4e487b7100000000000000000000000000000000000000000000000000000000600052602260045260246000fd5b6000600282049050600182168061374957607f821691505b60208210810361375c5761375b613702565b5b50919050565b7f496e76616c696420626174636820494400000000000000000000000000000000600082015250565b60006137986010836131d1565b91506137a382613762565b602082019050919050565b600060208201905081810360008301526137c78161378b565b9050919050565b60006020820190506137e36000830184613239565b92915050565b7f416363657373436f6e74726f6c3a2063616e206f6e6c792072656e6f756e636560008201527f20726f6c657320666f722073656c660000000000000000000000000000000000602082015250565b6000613845602f836131d1565b9150613850826137e9565b604082019050919050565b6000602082019050818103600083015261387481613838565b9050919050565b60008190508160005260206000209050919050565b60006020601f8301049050919050565b600082821b905092915050565b6000600883026138dd7fffffffffffffffffffffffffffffffffffffffffffffffffffffffffffffffff826138a0565b6138e786836138a0565b95508019841693508086168417925050509392505050565b6000819050919050565b600061392461391f61391a846129c4565b6138ff565b6129c4565b9050919050565b6000819050919050565b61393e83613909565b61395261394a8261392b565b8484546138ad565b825550505050565b600090565b61396761395a565b613972818484613935565b505050565b5b818110156139965761398b60008261395f565b600181019050613978565b5050565b601f8211156139db576139ac8161387b565b6139b584613890565b810160208510156139c4578190505b6139d86139d085613890565b830182613977565b50505b505050565b600082821c905092915050565b60006139fe600019846008026139e0565b1980831691505092915050565b6000613a1783836139ed565b9150826002028217905092915050565b613a3082612a36565b67ffffffffffffffff811115613a4957613a48612f3a565b5b613a538254613731565b613a5e82828561399a565b600060209050601f831160018114613a915760008415613a7f578287015190505b613a898582613a0b565b865550613af1565b601f198416613a9f8661387b565b60005b82811015613ac757848901518255600182019150602085019450602081019050613aa2565b86831015613ae45784890151613ae0601f8916826139ed565b8355505b6001600288020188555050505b505050505050565b7f496e76616c696420636f6e73756d657200000000000000000000000000000000600082015250565b6000613b2f6010836131d1565b9150613b3a82613af9565b602082019050919050565b60006020820190508181036000830152613b5e81613b22565b9050919050565b7f496e76616c69642072657461696c657200000000000000000000000000000000600082015250565b6000613b9b6010836131d1565b9150613ba682613b65565b602082019050919050565b60006020820190508181036000830152613bca81613b8e565b9050919050565b7f496e76616c6964206469737472696275746f7200000000000000000000000000600082015250565b6000613c076013836131d1565b9150613c1282613bd1565b602082019050919050565b60006020820190508181036000830152613c3681613bfa565b9050919050565b600081905092915050565b6000613c5382612a36565b613c5d8185613c3d565b9350613c6d818560208601612a52565b80840191505092915050565b6000613c858284613c48565b915081905092915050565b7f426174636820616c726561647920657869737473000000000000000000000000600082015250565b6000613cc66014836131d1565b9150613cd182613c90565b602082019050919050565b60006020820190508181036000830152613cf581613cb9565b9050919050565b7f4e487b7100000000000000000000000000000000000000000000000000000000600052601160045260246000fd5b6000613d36826129c4565b91507fffffffffffffffffffffffffffffffffffffffffffffffffffffffffffffffff8203613d6857613d67613cfc565b5b600182019050919050565b60006040820190508181036000830152613d8d81856131e2565b9050613d9c602083018461321b565b9392505050565b7f416363657373436f6e74726f6c3a206163636f756e7420000000000000000000600082015250565b6000613dd9601783613c3d565b9150613de482613da3565b601782019050919050565b7f206973206d697373696e6720726f6c6520000000000000000000000000000000600082015250565b6000613e25601183613c3d565b9150613e3082613def565b601182019050919050565b6000613e4682613dcc565b9150613e528285613c48565b9150613e5d82613e18565b9150613e698284613c48565b91508190509392505050565b60006020820190508181036000830152613e8f81846131e2565b905092915050565b6000613ea2826129c4565b9150613ead836129c4565b9250828202613ebb816129c4565b91508282048414831517613ed257613ed1613cfc565b5b5092915050565b6000613ee4826129c4565b9150613eef836129c4565b9250828201905080821115613f0757613f06613cfc565b5b92915050565b7f4e487b7100000000000000000000000000000000000000000000000000000000600052603260045260246000fd5b6000613f47826129c4565b915060008203613f5a57613f59613cfc565b5b600182039050919050565b7f537472696e67733a20686578206c656e67746820696e73756666696369656e74600082015250565b6000613f9b6020836131d1565b9150613fa682613f65565b602082019050919050565b60006020820190508181036000830152613fca81613f8e565b905091905056fea264697066735822122077882547f4382894436204c108534d36534e4c1c47f980a0d084c4ff6ec9cc2c64736f6c63430008140033",
  "linkReferences": {},
  "deployedLinkReferences": {}
}