{
  "_format": "hh-sol-artifact-1",
  "contractName": "SupplyChain",
  "sourceName": "contracts/SupplyChain.sol",
  "abi": [
    {
      "inputs": [],
      "stateMutability": "nonpayable",
      "type": "constructor"
    },
    {
      "anonymous": false,
      "inputs": [
        {
          "indexed": true,
          "internalType": "uint256",
          "name": "batchId",
          "type": "uint256"
        },
        {
          "indexed": true,
          "internalType": "address",
          "name": "farmer",
          "type": "address"
        },
        {
          "indexed": false,
          "internalType": "string",
          "name": "batchIdString",
          "type": "string"
        },
        {
          "indexed": false,
          "internalType": "enum SupplyChain.Category",
          "name": "category",
          "type": "uint8"
        }
      ],
      "name": "BatchCreated",
      "type": "event"
    },
    {
      "anonymous": false,
      "inputs": [
        {
          "indexed": true,
          "internalType": "uint256",
          "name": "batchId",
          "type": "uint256"
        },
        {
          "indexed": true,
          "internalType": "address",
          "name": "retailer",
          "type": "address"
        }
      ],
      "name": "BatchForSale",
      "type": "event"
    },
    {
      "anonymous": false,
      "inputs": [
        {
          "indexed": true,
          "internalType": "uint256",
          "name": "batchId",
          "type": "uint256"
        },
        {
          "indexed": true,
          "internalType": "address",
          "name": "distributor",
          "type": "address"
        }
      ],
      "name": "BatchInTransit",
      "type": "event"
    },
    {
      "anonymous": false,
      "inputs": [
        {
          "indexed": true,
          "internalType": "uint256",
          "name": "batchId",
          "type": "uint256"
        },
        {
          "indexed": true,
          "internalType": "address",
          "name": "retailer",
          "type": "address"
        }
      ],
      "name": "BatchPackaged",
      "type": "event"
    },
    {
      "anonymous": false,
      "inputs": [
        {
          "indexed": true,
          "internalType": "uint256",
          "name": "batchId",
          "type": "uint256"
        },
        {
          "indexed": true,
          "internalType": "address",
          "name": "distributor",
          "type": "address"
        }
      ],
      "name": "BatchProcessed",
      "type": "event"
    },
    {
      "anonymous": false,
      "inputs": [
        {
          "indexed": true,
          "internalType": "uint256",
          "name": "batchId",
          "type": "uint256"
        },
        {
          "indexed": true,
          "internalType": "address",
          "name": "initiator",
          "type": "address"
        },
        {
          "indexed": false,
          "internalType": "string",
          "name": "reason",
          "type": "string"
        }
      ],
      "name": "BatchRecalled",
      "type": "event"
    },
    {
      "anonymous": false,
      "inputs": [
        {
          "indexed": true,
          "internalType": "uint256",
          "name": "batchId",
          "type": "uint256"
        },
        {
          "indexed": true,
          "internalType": "address",
          "name": "consumer",
          "type": "address"
        }
      ],
      "name": "BatchSold",
      "type": "event"
    },
    {
      "anonymous": false,
      "inputs": [
        {
          "indexed": true,
          "internalType": "uint256",
          "name": "batchId",
          "type": "uint256"
        },
        {
          "indexed": false,
          "internalType": "bool",
          "name": "verified",
          "type": "bool"
        }
      ],
      "name": "CertificationVerified",
      "type": "event"
    },
    {
      "anonymous": false,
      "inputs": [
        {
          "indexed": true,
          "internalType": "uint256",
          "name": "batchId",
          "type": "uint256"
        },
        {
          "indexed": false,
          "internalType": "uint256",
          "name": "packagingDate",
          "type": "uint256"
        },
        {
          "indexed": false,
          "internalType": "string",
          "name": "storageConditions",
          "type": "string"
        }
      ],
      "name": "PackagingDetailsUpdated",
      "type": "event"
    },
    {
      "anonymous": false,
      "inputs": [
        {
          "indexed": true,
          "internalType": "uint256",
          "name": "batchId",
          "type": "uint256"
        },
        {
          "indexed": false,
          "internalType": "uint256",
          "name": "arrivalDate",
          "type": "uint256"
        },
        {
          "indexed": false,
          "internalType": "uint256",
          "name": "stockQuantity",
          "type": "uint256"
        },
        {
          "indexed": false,
          "internalType": "uint256",
          "name": "sellingPrice",
          "type": "uint256"
        }
      ],
      "name": "RetailDetailsUpdated",
      "type": "event"
    },
    {
      "anonymous": false,
      "inputs": [
        {
          "indexed": true,
          "internalType": "bytes32",
          "name": "role",
          "type": "bytes32"
        },
        {
          "indexed": true,
          "internalType": "bytes32",
          "name": "previousAdminRole",
          "type": "bytes32"
        },
        {
          "indexed": true,
          "internalType": "bytes32",
          "name": "newAdminRole",
          "type": "bytes32"
        }
      ],
      "name": "RoleAdminChanged",
      "type": "event"
    },
    {
      "anonymous": false,
      "inputs": [
        {
          "indexed": true,
          "internalType": "bytes32",
          "name": "role",
          "type": "bytes32"
        },
        {
          "indexed": true,
          "internalType": "address",
          "name": "account",
          "type": "address"
        },
        {
          "indexed": true,
          "internalType": "address",
          "name": "sender",
          "type": "address"
        }
      ],
      "name": "RoleGranted",
      "type": "event"
    },
    {
      "anonymous": false,
      "inputs": [
        {
          "indexed": true,
          "internalType": "bytes32",
          "name": "role",
          "type": "bytes32"
        },
        {
          "indexed": true,
          "internalType": "address",
          "name": "account",
          "type": "address"
        },
        {
          "indexed": true,
          "internalType": "address",
          "name": "sender",
          "type": "address"
        }
      ],
      "name": "RoleRevoked",
      "type": "event"
    },
    {
      "inputs": [],
      "name": "ADMIN_ROLE",
      "outputs": [
        {
          "internalType": "bytes32",
          "name": "",
          "type": "bytes32"
        }
      ],
      "stateMutability": "view",
      "type": "function"
    },
    {
      "inputs": [],
      "name": "CONSUMER_ROLE",
      "outputs": [
        {
          "internalType": "bytes32",
          "name": "",
          "type": "bytes32"
        }
      ],
      "stateMutability": "view",
      "type": "function"
    },
    {
      "inputs": [],
      "name": "DEFAULT_ADMIN_ROLE",
      "outputs": [
        {
          "internalType": "bytes32",
          "name": "",
          "type": "bytes32"
        }
      ],
      "stateMutability": "view",
      "type": "function"
    },
    {
      "inputs": [],
      "name": "DISTRIBUTOR_ROLE",
      "outputs": [
        {
          "internalType": "bytes32",
          "name": "",
          "type": "bytes32"
        }
      ],
      "stateMutability": "view",
      "type": "function"
    },
    {
      "inputs": [],
      "name": "FARMER_ROLE",
      "outputs": [
        {
          "internalType": "bytes32",
          "name": "",
          "type": "bytes32"
        }
      ],
      "stateMutability": "view",
      "type": "function"
    },
    {
      "inputs": [],
      "name": "RETAILER_ROLE",
      "outputs": [
        {
          "internalType": "bytes32",
          "name": "",
          "type": "bytes32"
        }
      ],
      "stateMutability": "view",
      "type": "function"
    },
    {
      "inputs": [
        {
          "internalType": "address",
          "name": "account",
          "type": "address"
        }
      ],
      "name": "addConsumer",
      "outputs": [],
      "stateMutability": "nonpayable",
      "type": "function"
    },
    {
      "inputs": [
        {
          "internalType": "address",
          "name": "account",
          "type": "address"
        }
      ],
      "name": "addDistributor",
      "outputs": [],
      "stateMutability": "nonpayable",
      "type": "function"
    },
    {
      "inputs": [
        {
          "internalType": "address",
          "name": "account",
          "type": "address"
        }
      ],
      "name": "addFarmer",
      "outputs": [],
      "stateMutability": "nonpayable",
      "type": "function"
    },
    {
      "inputs": [
        {
          "internalType": "address",
          "name": "account",
          "type": "address"
        }
      ],
      "name": "addRetailer",
      "outputs": [],
      "stateMutability": "nonpayable",
      "type": "function"
    },
    {
      "inputs": [
        {
          "internalType": "string",
          "name": "",
          "type": "string"
        }
      ],
      "name": "batchIdToIndex",
      "outputs": [
        {
          "internalType": "uint256",
          "name": "",
          "type": "uint256"
        }
      ],
      "stateMutability": "view",
      "type": "function"
    },
    {
      "inputs": [
        {
          "internalType": "uint256",
          "name": "",
          "type": "uint256"
        }
      ],
      "name": "batches",
      "outputs": [
        {
          "internalType": "uint256",
          "name": "id",
          "type": "uint256"
        },
        {
          "internalType": "string",
          "name": "batchId",
          "type": "string"
        },
        {
          "internalType": "string",
          "name": "certificateId",
          "type": "string"
        },
        {
          "internalType": "enum SupplyChain.Category",
          "name": "category",
          "type": "uint8"
        },
        {
          "internalType": "string",
          "name": "crop",
          "type": "string"
        },
        {
          "internalType": "string",
          "name": "origin",
          "type": "string"
        },
        {
          "internalType": "uint256",
          "name": "harvestDate",
          "type": "uint256"
        },
        {
          "internalType": "address",
          "name": "farmer",
          "type": "address"
        },
        {
          "internalType": "address",
          "name": "distributor",
          "type": "address"
        },
        {
          "internalType": "address",
          "name": "retailer",
          "type": "address"
        },
        {
          "internalType": "address",
          "name": "consumer",
          "type": "address"
        },
        {
          "internalType": "uint256",
          "name": "weight",
          "type": "uint256"
        },
        {
          "internalType": "string",
          "name": "quality",
          "type": "string"
        },
        {
          "internalType": "enum SupplyChain.BatchStatus",
          "name": "status",
          "type": "uint8"
        },
        {
          "internalType": "uint256",
          "name": "createdAt",
          "type": "uint256"
        },
        {
          "internalType": "uint256",
          "name": "updatedAt",
          "type": "uint256"
        },
        {
          "internalType": "string",
          "name": "storageConditions",
          "type": "string"
        },
        {
          "internalType": "string",
          "name": "destination",
          "type": "string"
        },
        {
          "internalType": "string",
          "name": "farmerName",
          "type": "string"
        },
        {
          "internalType": "string",
          "name": "retailerName",
          "type": "string"
        },
        {
          "internalType": "uint256",
          "name": "packagingDate",
          "type": "uint256"
        },
        {
          "internalType": "uint256",
          "name": "arrivalDate",
          "type": "uint256"
        },
        {
          "internalType": "uint256",
          "name": "stockQuantity",
          "type": "uint256"
        },
        {
          "internalType": "uint256",
          "name": "sellingPrice",
          "type": "uint256"
        },
        {
          "internalType": "bool",
          "name": "certificationVerified",
          "type": "bool"
        }
      ],
      "stateMutability": "view",
      "type": "function"
    },
    {
      "inputs": [
        {
          "internalType": "string",
          "name": "_batchId",
          "type": "string"
        },
        {
          "internalType": "string",
          "name": "_certificateId",
          "type": "string"
        },
        {
          "internalType": "enum SupplyChain.Category",
          "name": "_category",
          "type": "uint8"
        },
        {
          "internalType": "string",
          "name": "_crop",
          "type": "string"
        },
        {
          "internalType": "string",
          "name": "_origin",
          "type": "string"
        },
        {
          "internalType": "uint256",
          "name": "_harvestDate",
          "type": "uint256"
        },
        {
          "internalType": "string",
          "name": "_quality",
          "type": "string"
        },
        {
          "internalType": "uint256",
          "name": "_weight",
          "type": "uint256"
        },
        {
          "internalType": "string",
          "name": "_storageConditions",
          "type": "string"
        },
        {
          "internalType": "string",
          "name": "_destination",
          "type": "string"
        },
        {
          "internalType": "string",
          "name": "_farmerName",
          "type": "string"
        }
      ],
      "name": "createBatch",
      "outputs": [],
      "stateMutability": "nonpayable",
      "type": "function"
    },
    {
      "inputs": [
        {
          "internalType": "uint256",
          "name": "_batchId",
          "type": "uint256"
        }
      ],
      "name": "getBatch",
      "outputs": [
        {
          "components": [
            {
              "internalType": "uint256",
              "name": "id",
              "type": "uint256"
            },
            {
              "internalType": "string",
              "name": "batchId",
              "type": "string"
            },
            {
              "internalType": "string",
              "name": "certificateId",
              "type": "string"
            },
            {
              "internalType": "enum SupplyChain.Category",
              "name": "category",
              "type": "uint8"
            },
            {
              "internalType": "string",
              "name": "crop",
              "type": "string"
            },
            {
              "internalType": "string",
              "name": "origin",
              "type": "string"
            },
            {
              "internalType": "uint256",
              "name": "harvestDate",
              "type": "uint256"
            },
            {
              "internalType": "address",
              "name": "farmer",
              "type": "address"
            },
            {
              "internalType": "address",
              "name": "distributor",
              "type": "address"
            },
            {
              "internalType": "address",
              "name": "retailer",
              "type": "address"
            },
            {
              "internalType": "address",
              "name": "consumer",
              "type": "address"
            },
            {
              "internalType": "uint256",
              "name": "weight",
              "type": "uint256"
            },
            {
              "internalType": "string",
              "name": "quality",
              "type": "string"
            },
            {
              "internalType": "enum SupplyChain.BatchStatus",
              "name": "status",
              "type": "uint8"
            },
            {
              "internalType": "uint256",
              "name": "createdAt",
              "type": "uint256"
            },
            {
              "internalType": "uint256",
              "name": "updatedAt",
              "type": "uint256"
            },
            {
              "internalType": "string",
              "name": "storageConditions",
              "type": "string"
            },
            {
              "internalType": "string",
              "name": "destination",
              "type": "string"
            },
            {
              "internalType": "string",
              "name": "farmerName",
              "type": "string"
            },
            {
              "internalType": "string",
              "name": "retailerName",
              "type": "string"
            },
            {
              "internalType": "uint256",
              "name": "packagingDate",
              "type": "uint256"
            },
            {
              "internalType": "uint256",
              "name": "arrivalDate",
              "type": "uint256"
            },
            {
              "internalType": "uint256",
              "name": "stockQuantity",
              "type": "uint256"
            },
            {
              "internalType": "uint256",
              "name": "sellingPrice",
              "type": "uint256"
            },
            {
              "internalType": "bool",
              "name": "certificationVerified",
              "type": "bool"
            }
          ],
          "internalType": "struct SupplyChain.Batch",
          "name": "",
          "type": "tuple"
        }
      ],
      "stateMutability": "view",
      "type": "function"
    },
    {
      "inputs": [
        {
          "internalType": "string",
          "name": "_batchId",
          "type": "string"
        }
      ],
      "name": "getBatchByBatchId",
      "outputs": [
        {
          "components": [
            {
              "internalType": "uint256",
              "name": "id",
              "type": "uint256"
            },
            {
              "internalType": "string",
              "name": "batchId",
              "type": "string"
            },
            {
              "internalType": "string",
              "name": "certificateId",
              "type": "string"
            },
            {
              "internalType": "enum SupplyChain.Category",
              "name": "category",
              "type": "uint8"
            },
            {
              "internalType": "string",
              "name": "crop",
              "type": "string"
            },
            {
              "internalType": "string",
              "name": "origin",
              "type": "string"
            },
            {
              "internalType": "uint256",
              "name": "harvestDate",
              "type": "uint256"
            },
            {
              "internalType": "address",
              "name": "farmer",
              "type": "address"
            },
            {
              "internalType": "address",
              "name": "distributor",
              "type": "address"
            },
            {
              "internalType": "address",
              "name": "retailer",
              "type": "address"
            },
            {
              "internalType": "address",
              "name": "consumer",
              "type": "address"
            },
            {
              "internalType": "uint256",
              "name": "weight",
              "type": "uint256"
            },
            {
              "internalType": "string",
              "name": "quality",
              "type": "string"
            },
            {
              "internalType": "enum SupplyChain.BatchStatus",
              "name": "status",
              "type": "uint8"
            },
            {
              "internalType": "uint256",
              "name": "createdAt",
              "type": "uint256"
            },
            {
              "internalType": "uint256",
              "name": "updatedAt",
              "type": "uint256"
            },
            {
              "internalType": "string",
              "name": "storageConditions",
              "type": "string"
            },
            {
              "internalType": "string",
              "name": "destination",
              "type": "string"
            },
            {
              "internalType": "string",
              "name": "farmerName",
              "type": "string"
            },
            {
              "internalType": "string",
              "name": "retailerName",
              "type": "string"
            },
            {
              "internalType": "uint256",
              "name": "packagingDate",
              "type": "uint256"
            },
            {
              "internalType": "uint256",
              "name": "arrivalDate",
              "type": "uint256"
            },
            {
              "internalType": "uint256",
              "name": "stockQuantity",
              "type": "uint256"
            },
            {
              "internalType": "uint256",
              "name": "sellingPrice",
              "type": "uint256"
            },
            {
              "internalType": "bool",
              "name": "certificationVerified",
              "type": "bool"
            }
          ],
          "internalType": "struct SupplyChain.Batch",
          "name": "",
          "type": "tuple"
        }
      ],
      "stateMutability": "view",
      "type": "function"
    },
    {
      "inputs": [],
      "name": "getBatchCount",
      "outputs": [
        {
          "internalType": "uint256",
          "name": "",
          "type": "uint256"
        }
      ],
      "stateMutability": "view",
      "type": "function"
    },
    {
      "inputs": [
        {
          "internalType": "enum SupplyChain.Category",
          "name": "_category",
          "type": "uint8"
        }
      ],
      "name": "getBatchesByCategory",
      "outputs": [
        {
          "components": [
            {
              "internalType": "uint256",
              "name": "id",
              "type": "uint256"
            },
            {
              "internalType": "string",
              "name": "batchId",
              "type": "string"
            },
            {
              "internalType": "string",
              "name": "certificateId",
              "type": "string"
            },
            {
              "internalType": "enum SupplyChain.Category",
              "name": "category",
              "type": "uint8"
            },
            {
              "internalType": "string",
              "name": "crop",
              "type": "string"
            },
            {
              "internalType": "string",
              "name": "origin",
              "type": "string"
            },
            {
              "internalType": "uint256",
              "name": "harvestDate",
              "type": "uint256"
            },
            {
              "internalType": "address",
              "name": "farmer",
              "type": "address"
            },
            {
              "internalType": "address",
              "name": "distributor",
              "type": "address"
            },
            {
              "internalType": "address",
              "name": "retailer",
              "type": "address"
            },
            {
              "internalType": "address",
              "name": "consumer",
              "type": "address"
            },
            {
              "internalType": "uint256",
              "name": "weight",
              "type": "uint256"
            },
            {
              "internalType": "string",
              "name": "quality",
              "type": "string"
            },
            {
              "internalType": "enum SupplyChain.BatchStatus",
              "name": "status",
              "type": "uint8"
            },
            {
              "internalType": "uint256",
              "name": "createdAt",
              "type": "uint256"
            },
            {
              "internalType": "uint256",
              "name": "updatedAt",
              "type": "uint256"
            },
            {
              "internalType": "string",
              "name": "storageConditions",
              "type": "string"
            },
            {
              "internalType": "string",
              "name": "destination",
              "type": "string"
            },
            {
              "internalType": "string",
              "name": "farmerName",
              "type": "string"
            },
            {
              "internalType": "string",
              "name": "retailerName",
              "type": "string"
            },
            {
              "internalType": "uint256",
              "name": "packagingDate",
              "type": "uint256"
            },
            {
              "internalType": "uint256",
              "name": "arrivalDate",
              "type": "uint256"
            },
            {
              "internalType": "uint256",
              "name": "stockQuantity",
              "type": "uint256"
            },
            {
              "internalType": "uint256",
              "name": "sellingPrice",
              "type": "uint256"
            },
            {
              "internalType": "bool",
              "name": "certificationVerified",
              "type": "bool"
            }
          ],
          "internalType": "struct SupplyChain.Batch[]",
          "name": "",
          "type": "tuple[]"
        }
      ],
      "stateMutability": "view",
      "type": "function"
    },
    {
      "inputs": [
        {
          "internalType": "bytes32",
          "name": "role",
          "type": "bytes32"
        }
      ],
      "name": "getRoleAdmin",
      "outputs": [
        {
          "internalType": "bytes32",
          "name": "",
          "type": "bytes32"
        }
      ],
      "stateMutability": "view",
      "type": "function"
    },
    {
      "inputs": [
        {
          "internalType": "bytes32",
          "name": "role",
          "type": "bytes32"
        },
        {
          "internalType": "address",
          "name": "account",
          "type": "address"
        }
      ],
      "name": "grantRole",
      "outputs": [],
      "stateMutability": "nonpayable",
      "type": "function"
    },
    {
      "inputs": [
        {
          "internalType": "bytes32",
          "name": "role",
          "type": "bytes32"
        },
        {
          "internalType": "address",
          "name": "account",
          "type": "address"
        }
      ],
      "name": "hasRole",
      "outputs": [
        {
          "internalType": "bool",
          "name": "",
          "type": "bool"
        }
      ],
      "stateMutability": "view",
      "type": "function"
    },
    {
      "inputs": [
        {
          "internalType": "uint256",
          "name": "_batchId",
          "type": "uint256"
        },
        {
          "internalType": "address",
          "name": "_retailer",
          "type": "address"
        }
      ],
      "name": "packageBatch",
      "outputs": [],
      "stateMutability": "nonpayable",
      "type": "function"
    },
    {
      "inputs": [
        {
          "internalType": "uint256",
          "name": "_batchId",
          "type": "uint256"
        }
      ],
      "name": "processBatch",
      "outputs": [],
      "stateMutability": "nonpayable",
      "type": "function"
    },
    {
      "inputs": [
        {
          "internalType": "uint256",
          "name": "_batchId",
          "type": "uint256"
        }
      ],
      "name": "putForSale",
      "outputs": [],
      "stateMutability": "nonpayable",
      "type": "function"
    },
    {
      "inputs": [
        {
          "internalType": "uint256",
          "name": "_batchId",
          "type": "uint256"
        },
        {
          "internalType": "string",
          "name": "_reason",
          "type": "string"
        }
      ],
      "name": "recallBatch",
      "outputs": [],
      "stateMutability": "nonpayable",
      "type": "function"
    },
    {
      "inputs": [
        {
          "internalType": "bytes32",
          "name": "role",
          "type": "bytes32"
        },
        {
          "internalType": "address",
          "name": "account",
          "type": "address"
        }
      ],
      "name": "renounceRole",
      "outputs": [],
      "stateMutability": "nonpayable",
      "type": "function"
    },
    {
      "inputs": [
        {
          "internalType": "bytes32",
          "name": "role",
          "type": "bytes32"
        },
        {
          "internalType": "address",
          "name": "account",
          "type": "address"
        }
      ],
      "name": "revokeRole",
      "outputs": [],
      "stateMutability": "nonpayable",
      "type": "function"
    },
    {
      "inputs": [
        {
          "internalType": "uint256",
          "name": "_batchId",
          "type": "uint256"
        },
        {
          "internalType": "address",
          "name": "_consumer",
          "type": "address"
        }
      ],
      "name": "sellBatch",
      "outputs": [],
      "stateMutability": "nonpayable",
      "type": "function"
    },
    {
      "inputs": [
        {
          "internalType": "uint256",
          "name": "_batchId",
          "type": "uint256"
        },
        {
          "internalType": "address",
          "name": "_distributor",
          "type": "address"
        }
      ],
      "name": "shipBatch",
      "outputs": [],
      "stateMutability": "nonpayable",
      "type": "function"
    },
    {
      "inputs": [
        {
          "internalType": "bytes4",
          "name": "interfaceId",
          "type": "bytes4"
        }
      ],
      "name": "supportsInterface",
      "outputs": [
        {
          "internalType": "bool",
          "name": "",
          "type": "bool"
        }
      ],
      "stateMutability": "view",
      "type": "function"
    },
    {
      "inputs": [
        {
          "internalType": "uint256",
          "name": "_batchId",
          "type": "uint256"
        },
        {
          "internalType": "uint256",
          "name": "_packagingDate",
          "type": "uint256"
        },
        {
          "internalType": "string",
          "name": "_storageConditions",
          "type": "string"
        }
      ],
      "name": "updatePackagingDetails",
      "outputs": [],
      "stateMutability": "nonpayable",
      "type": "function"
    },
    {
      "inputs": [
        {
          "internalType": "uint256",
          "name": "_batchId",
          "type": "uint256"
        },
        {
          "internalType": "uint256",
          "name": "_arrivalDate",
          "type": "uint256"
        },
        {
          "internalType": "uint256",
          "name": "_stockQuantity",
          "type": "uint256"
        },
        {
          "internalType": "uint256",
          "name": "_sellingPrice",
          "type": "uint256"
        },
        {
          "internalType": "string",
          "name": "_retailerName",
          "type": "string"
        }
      ],
      "name": "updateRetailDetails",
      "outputs": [],
      "stateMutability": "nonpayable",
      "type": "function"
    },
    {
      "inputs": [
        {
          "internalType": "uint256",
          "name": "_batchId",
          "type": "uint256"
        }
      ],
      "name": "verifyBatch",
      "outputs": [],
      "stateMutability": "view",
      "type": "function"
    },
    {
      "inputs": [
        {
          "internalType": "uint256",
          "name": "_batchId",
          "type": "uint256"
        },
        {
          "internalType": "bool",
          "name": "_verified",
          "type": "bool"
        }
      ],
      "name": "verifyCertification",
      "outputs": [],
      "stateMutability": "nonpayable",
      "type": "function"
    }
  ],
  "bytecode": "0x6080604081815234620000eb576000808052602091818352808220338352835260ff818320541615620000b3575b7fa49807205ce4d355092ef5a8a18f56e8913cf4a201fbe287825b095693c2177592838352828152818320338452815260ff82842054161562000078575b613b168581620000f18239f35b83835282815281832090338452528120600160ff19825416179055339160008051602062003c07833981519152339280a4388080806200006b565b8180528183528082203383528352808220600160ff1982541617905533338360008051602062003c078339815191528180a46200002d565b600080fdfe61024080604052600436101561001457600080fd5b60003560e01c90816301ffc9a714612c2e5750806303fc47b114611d7a5780630434142214611b90578063112940f914611b0b5780631d38a71e146118db5780631e28addd1461187f5780631f078ced1461176b5780632115e7bf14611742578063232a45811461141b578063248a9ca3146113ec57806327068155146112c15780632f2ff15d1461125c57806336568abe146111ca57806342b86aa7146110f35780634bc02da6146110b85780635ac4428214610ede5780635d30531514610e3c5780636309463b14610d555780637250e22414610ce257806375b238fc14610ca757806380c3f96d14610c225780638ec4f50514610b6157806391d1485414610b14578063a217fddf14610af8578063a8fabfa514610ada578063b32c4d8d146107e1578063bad5f802146105c0578063cdd1d3d3146104ac578063d547741f1461046d578063daa2a6711461022a578063dfe3a3ae146101f4578063f0bd87cc146101cb5763f39439701461018b57600080fd5b346101c65760003660031901126101c65760206040517f7c6181838a71a779e445600d4c6ecbe16bacf2b3c5bda69c29fada66d1b645d18152f35b600080fd5b346101c65760003660031901126101c6576020604051600080516020613aa18339815191528152f35b346101c65760203660031901126101c65761021b600435801515908161021d575b506138e9565b005b9050600154101582610215565b346101c65760603660031901126101c6576001600160401b036004356024356044358381116101c657610261903690600401612cd9565b9061026a6134c6565b82151580610461575b61027c906138e9565b826000526020916002835260ff600d6040600020015416600781101561044b5760026102a89114613928565b836000526002835260106040600020836014820155018151958611610435576102d18154612f53565b601f81116103ef575b508395601f811160011461036657908161035693927fdc15737f6dcd0e8b85991549dcfab4eef661eb115e4245b6269fb0b13a32c784979860009161035b575b508160011b916000199060031b1c19161790555b856000526002845242600f604060002001556040805194859485528401526040830190612d7e565b0390a2005b90508301518961031a565b601f19811682600052856000209060005b8181106103d85750916001917fdc15737f6dcd0e8b85991549dcfab4eef661eb115e4245b6269fb0b13a32c784989982610356979695106103bf575b5050811b01905561032e565b85015160001960f88460031b161c1916905589806103b3565b858a01518355988701986001909201918701610377565b8160005284600020601f880160051c81019186891061042b575b601f0160051c01905b81811061041f57506102da565b60008155600101610412565b9091508190610409565b634e487b7160e01b600052604160045260246000fd5b634e487b7160e01b600052602160045260246000fd5b50600154831115610273565b346101c65760403660031901126101c65761021b60043561048c612d45565b908060005260006020526104a76001604060002001546135f9565b613703565b346101c65760403660031901126101c6576004356104c8612d45565b6104d0613033565b811515806105b4575b6104e2906138e9565b81600052600260205260ff600d6040600020015416600781101561044b5761056f57816000526002602052604060002090600882019060018060a01b03166001600160601b0360a01b825416179055600d8101600160ff19825416179055600f4291015533907f073b7b3dddf69ddd697781be90d52e464d9a55474a81fc426ffd9cd0abec8e90600080a3005b60405162461bcd60e51b815260206004820152601a60248201527f4261746368206e6f7420696e20637265617465642073746174650000000000006044820152606490fd5b506001548211156104d9565b346101c65760a03660031901126101c6576004356024356064356044356001600160401b036084358181116101c6576105fd903690600401612cd9565b610605613393565b851515806107d5575b610617906138e9565b856000526020916002835261063d60018060a01b03600960406000200154163314613974565b86600052600283526013604060002087601582015585601682015586601782015501918051918211610435576106738354612f53565b601f811161078f575b508390601f83116001146107015791807f615ccc6034b18001ee306424a9a81a67a54370412b606b22df7b1e2f0b75921a9896949260609896946000926106f6575b50508160011b916000199060031b1c19161790555b866000526002815242600f604060002001556040519384528301526040820152a2005b015190508a806106be565b90601f1983169184600052856000209260005b818110610778575092600192859260609a98967f615ccc6034b18001ee306424a9a81a67a54370412b606b22df7b1e2f0b75921a9c9a98961061075f575b505050811b0190556106d3565b015160001960f88460031b161c191690558a8080610752565b929387600181928786015181550195019301610714565b8360005284600020601f840160051c8101918685106107cb575b601f0160051c01905b8181106107bf575061067c565b600081556001016107b2565b90915081906107a9565b5060015486111561060e565b346101c65760203660031901126101c657600435600052600260205260406000208061022052805460a05260010161081890612f8d565b6102205160020161082890612f8d565b6102005261022051600381015460ff166101405260040161084890612f8d565b906102205160050161085990612f8d565b90610220516006810154600160a01b6001900391826007820154169280600883015416908060098401541690600a8401541691600b84015493600c0161089e90612f8d565b956102205198600d8a015460ff169a600e8b015499600f8c01549b6010016108c590612f8d565b60e052610220516011016108d890612f8d565b61012052610220516012016108ec90612f8d565b610100526102205160130161090090612f8d565b6101c05261022051601481015460c05260158101546101805260168101546080526017810154610160526018015460ff166101e052604051806101a05260a0519052610320806101a051602001526101a0510161095c91612d7e565b6101a0518082039060400152610200519061097691612d7e565b6101a051606001610140519061098b91612da3565b6101a05180820390608001526109a091612d7e565b6101a0518082039060a001526109b591612d7e565b956101a05160c001526101a05160e001526101a05161010001526101a05161012001526101a05161014001526101a05161016001526101a051808203906101800152610a0091612d7e565b926101a0516101a001610a1291612db0565b6101a0516101c001526101a0516101e001526101a05180820390610200015260e05190610a3e91612d7e565b6101a0518082039061022001526101205190610a5991612d7e565b6101a0518082039061024001526101005190610a7491612d7e565b6101a0518082039061026001526101c05190610a8f91612d7e565b60c0516101a0516102800152610180516101a0516102a001526080516101a0516102c00152610160516101a0516102e001526101e05115156101a05161030001526101a05180910390f35b346101c65760003660031901126101c6576020600154604051908152f35b346101c65760003660031901126101c657602060405160008152f35b346101c65760403660031901126101c657610b2d612d45565b600435600052600060205260406000209060018060a01b0316600052602052602060ff604060002054166040519015158152f35b346101c65760203660031901126101c657610b7a612d2f565b610b8261324e565b6001600160a01b031660008181527f7d2ff12adb962f8af2796f09b4dfd39c23d7c774bbd4cb0e6564ba0669af2afc6020526040902054600080516020613ac1833981519152919060ff1615610bd457005b8160005260006020526040600020816000526020526040600020600160ff1982541617905533917f2f8788117e7eff1d82e926ec794901d17c78024a50270940304540a733656f0d600080a4005b346101c65760203660031901126101c657610c3b612d2f565b610c4361324e565b6001600160a01b031660008181527fa51945ecba8f4c6b5cca29605887192f197979d006cd586a7af80838543824c860205260409020547f7c6181838a71a779e445600d4c6ecbe16bacf2b3c5bda69c29fada66d1b645d1919060ff1615610bd457005b346101c65760003660031901126101c65760206040517fa49807205ce4d355092ef5a8a18f56e8913cf4a201fbe287825b095693c217758152f35b346101c65760203660031901126101c657610cfb612d2f565b610d0361324e565b6001600160a01b031660008181527f37775adb12013835ce20d78b1c52193dd1da3dc792bc1ec9a2d7427221516c8a6020526040902054600080516020613aa1833981519152919060ff1615610bd457005b346101c65760203660031901126101c657600435610d716134c6565b80151580610e30575b610d83906138e9565b80600052600260205260ff600d6040600020015416600781101561044b57600103610df4578060005260026020526040600020600d8101600260ff19825416179055600f4291015533907f52adde728ebfd6ce50a10d0f368f0c8fc8460a23bbddbb647c0a95044b72e951600080a3005b60405162461bcd60e51b815260206004820152601460248201527310985d18da081b9bdd081a5b881d1c985b9cda5d60621b6044820152606490fd5b50600154811115610d7a565b346101c65760403660031901126101c657600435602435801515908181036101c6577f24c28e02e8f2594f3bcb94faaeb12c001ab32bcee36a0083006527d946cfc4f691602091610e8b61324e565b84151580610ed2575b610e9d906138e9565b8460005260028352610ec3604060002091601883019060ff801983541691151516179055565b600f42910155604051908152a2005b50600154851115610e94565b346101c65760203660031901126101c657600435610efa6139c0565b50801515806110ac575b610f0d906138e9565b60005260026020526110a8604060002060ff601860405192610f2e84612c81565b80548452610f3e60018201612f8d565b6020850152610f4f60028201612f8d565b6040850152610f6783600383015416606086016138d1565b610f7360048201612f8d565b6080850152610f8460058201612f8d565b60a0850152600681015460c085015260078101546001600160a01b0390811660e08601526008820154811661010086015260098201548116610120860152600a82015416610140850152600b810154610160850152610fe5600c8201612f8d565b610180850152610fff83600d830154166101a086016138dd565b600e8101546101c0850152600f8101546101e085015261102160108201612f8d565b61020085015261103360118201612f8d565b61022085015261104560128201612f8d565b61024085015261105760138201612f8d565b610260850152601481015461028085015260158101546102a085015260168101546102c085015260178101546102e08501520154161515610300820152604051918291602083526020830190612dbd565b0390f35b50600154811115610f04565b346101c65760003660031901126101c65760206040517f9d56108290ea0bc9c5c59c3ad357dca9d1b29ed7f3ae1443bef2fa2159bdf5e88152f35b346101c65760403660031901126101c65760043561110f612d45565b6111176134c6565b811515806111be575b611129906138e9565b81600052600260205260ff600d6040600020015416600781101561044b5760026111539114613928565b816000526002602052604060002090600982019060018060a01b03166001600160601b0360a01b825416179055600d8101600360ff19825416179055600f4291015533907f13ea5deccdaaa6f118aa8ed231e794650396969412ced61cf4756cc465221d64600080a3005b50600154821115611120565b346101c65760403660031901126101c6576111e3612d45565b336001600160a01b038216036111ff5761021b90600435613703565b60405162461bcd60e51b815260206004820152602f60248201527f416363657373436f6e74726f6c3a2063616e206f6e6c792072656e6f756e636560448201526e103937b632b9903337b91039b2b63360891b6064820152608490fd5b346101c65760403660031901126101c657600435611278612d45565b8160005260006020526112926001604060002001546135f9565b81600052600060205260406000209060018060a01b0316908160005260205260ff6040600020541615610bd457005b346101c65760403660031901126101c6576004356112dd612d45565b6112e5613393565b811515806113e0575b6112f7906138e9565b81600052600260205260ff600d6040600020015416600781101561044b576004036113a65781600052600260205260018060a01b039061134282600960406000200154163314613974565b826000526002602052604060002091600a830191166001600160601b0360a01b825416179055600d8101600560ff19825416179055600f4291015533907fd12e87d39efcabebb12f6540fdd3600b2359cd34e3fb3809747213eef503b4a5600080a3005b60405162461bcd60e51b81526020600482015260126024820152714261746368206e6f7420666f722073616c6560701b6044820152606490fd5b506001548211156112ee565b346101c65760203660031901126101c65760043560005260006020526020600160406000200154604051908152f35b346101c6576020806003193601126101c65760043560098082101590816101c6576000926001918254925b838111156116f6575061145885613a75565b946114666040519687612cb8565b808652611475601f1991613a75565b018660005b8281106116e05750505060009060015b848111156114f057604080518981528851818b01819052600092600582901b83018101918b8d01918d9085015b8287106114c45785850386f35b9091929382806114e0600193603f198a82030186528851612dbd565b96019201960195929190926114b7565b80600052856002808a5260ff906003828160406000200154169361044b578584101561044b57878c9414611531575b5050505061152c906138ac565b61148a565b9160186116d4949261158d83889a9661152c9960005283875261157b604060002094604051986115608a612c81565b86548a5261157060018801612f8d565b908a01528501612f8d565b604088015283015416606086016138d1565b61159960048201612f8d565b60808501526115aa60058201612f8d565b60a0850152600681015460c085015260078101546001600160a01b0390811660e086015260088201548116610100860152888201548116610120860152600a82015416610140850152600b81015461016085015261160a600c8201612f8d565b61018085015261162483600d830154166101a086016138dd565b600e8101546101c0850152600f8101546101e085015261164660108201612f8d565b61020085015261165860118201612f8d565b61022085015261166a60128201612f8d565b61024085015261167c60138201612f8d565b610260850152601481015461028085015260158101546102a085015260168101546102c085015260178101546102e085015201541615156103008201526116c3828b613a8c565b526116ce818a613a8c565b506138ac565b9290508789808061151f565b6116e86139c0565b82828a01015201879061147a565b80600052600287528460ff600360406000200154169061044b578281101561044b57831461172d575b611728906138ac565b611446565b9461173a611728916138ac565b95905061171f565b346101c65760003660031901126101c6576020604051600080516020613ac18339815191528152f35b346101c65760203660031901126101c657600435611787613393565b80151580611873575b611799906138e9565b80600052600260205260ff600d6040600020015416600781101561044b5760030361182e578060005260026020526117e260018060a01b03600960406000200154163314613974565b8060005260026020526040600020600d8101600460ff19825416179055600f4291015533907f64f440293499e0ca12d2363b05b808c8764e754fb3face68b709ff51367c81f8600080a3005b60405162461bcd60e51b815260206004820152601b60248201527f4261746368206e6f7420696e207061636b6167656420737461746500000000006044820152606490fd5b50600154811115611790565b346101c65760203660031901126101c6576004356001600160401b0381116101c6576118c860206118b581933690600401612cd9565b8160405193828580945193849201612d5b565b8101600381520301902054604051908152f35b346101c6576020806003193601126101c6576004356001600160401b0381116101c6578161191061192c923690600401612cd9565b6119186139c0565b508160405193828580945193849201612d5b565b81016003815203019020548015611ad4576000526002815260406000209060ff60186040519361195b85612c81565b8054855261196b60018201612f8d565b8486015261197b60028201612f8d565b604086015261199383600383015416606087016138d1565b61199f60048201612f8d565b60808601526119b060058201612f8d565b60a0860152600681015460c086015260078101546001600160a01b0390811660e08701526008820154811661010087015260098201548116610120870152600a82015416610140860152600b810154610160860152611a11600c8201612f8d565b610180860152611a2b83600d830154166101a087016138dd565b600e8101546101c0860152600f8101546101e0860152611a4d60108201612f8d565b610200860152611a5f60118201612f8d565b610220860152611a7160128201612f8d565b610240860152611a8360138201612f8d565b610260860152601481015461028086015260158101546102a086015260168101546102c086015260178101546102e086015201541615156103008301526110a8604051928284938452830190612dbd565b60405162461bcd60e51b815260048101839052600f60248201526e10985d18da081b9bdd08199bdd5b99608a1b6044820152606490fd5b346101c65760203660031901126101c657611b24612d2f565b611b2c61324e565b6001600160a01b031660008181527f60d27a4458aab6b352847091b9bd047730a6f421d79d3e60b87caf78a23077be60205260409020547f9d56108290ea0bc9c5c59c3ad357dca9d1b29ed7f3ae1443bef2fa2159bdf5e8919060ff1615610bd457005b346101c65760403660031901126101c6576004356024356001600160401b0381116101c657611bc3903690600401612cd9565b9080151580611d6e575b611bd6906138e9565b3360009081527fa51945ecba8f4c6b5cca29605887192f197979d006cd586a7af80838543824c8602090815260409091205490929060ff168015611d3e575b8015611d0e575b8015611ccc575b15611c8757611c827f9dd55b080561b4f234404654c8464792d7a5f09b220cdd59444d8ed7a767258f9183600052600285526040600020600d8101600660ff19825416179055600f429101556040519182918683523396830190612d7e565b0390a3005b60405162461bcd60e51b815260048101849052601860248201527f4e6f7420617574686f72697a656420746f20726563616c6c00000000000000006044820152606490fd5b507fa49807205ce4d355092ef5a8a18f56e8913cf4a201fbe287825b095693c2177560005260008352604060002033600052835260ff60406000205416611c23565b50600080516020613ac183398151915260005260008352604060002033600052835260ff60406000205416611c1c565b50600080516020613aa183398151915260005260008352604060002033600052835260ff60406000205416611c15565b50600154811115611bcd565b346101c6576101603660031901126101c6576004356001600160401b0381116101c657611dab903690600401612cd9565b6024356001600160401b0381116101c657611dca903690600401612cd9565b600960443510156101c6576064356001600160401b0381116101c657611df4903690600401612cd9565b906084356001600160401b0381116101c657611e14903690600401612cd9565b60c4356001600160401b0381116101c657611e33903690600401612cd9565b610104356001600160401b0381116101c657611e53903690600401612cd9565b610124356001600160401b0381116101c657611e73903690600401612cd9565b91610144356001600160401b0381116101c657611e94903690600401612cd9565b93611e9d613033565b60405160208181611eb48c83815193849201612d5b565b8101600381520301902054612be957611ece6001546138ac565b968760015560405196611ee088612c81565b8888528960208901526040880152611efd604435606089016138d1565b608087015260a086015260a43560c08601523360e086015260006101008601526000610120860152600061014086015260e43561016086015261018085015260006101a0850152426101c0850152426101e08501526102008401526102208301526102408201526040518060208101106001600160401b03602083011117610435576020810160405260008152610260820152600061028082015260006102a082015260006102c082015260006102e082015260006103008201528160005260026020526040600020908051825560208101518051906001600160401b038211610435578190611ff06001860154612f53565b601f8111612b96575b50602090601f8311600114612b2457600092612b19575b50508160011b916000199060031b1c19161760018301555b60408101518051906001600160401b03821161043557819061204d6002860154612f53565b601f8111612ac6575b50602090601f8311600114612a5457600092612a49575b50508160011b916000199060031b1c19161760028301555b6060810151600981101561044b57600383019060ff8019835416911617905560808101518051906001600160401b0382116104355781906120c96004860154612f53565b601f81116129f6575b50602090601f831160011461298457600092612979575b50508160011b916000199060031b1c19161760048301555b60a08101518051906001600160401b0382116104355781906121266005860154612f53565b601f8111612926575b50602090601f83116001146128b4576000926128a9575b50508160011b916000199060031b1c19161760058301555b60c081015160068301556007820160018060a01b03908160e084015116906001600160601b0360a01b91828254161790556008840182610100850151168282541617905560098401826101208501511682825416179055600a8401916101408401511690825416179055610160810151600b8301556101808101518051906001600160401b0382116104355781906121f9600c860154612f53565b601f8111612856575b50602090601f83116001146127e4576000926127d9575b50508160011b916000199060031b1c191617600c8301555b6101a0810151600781101561044b57600d83019060ff801983541691161790556101c0810151600e8301556101e0810151600f8301556102008101518051906001600160401b03821161043557819061228d6010860154612f53565b601f8111612786575b50602090601f831160011461271457600092612709575b50508160011b916000199060031b1c19161760108301555b6102208101518051906001600160401b0382116104355781906122eb6011860154612f53565b601f81116126b6575b50602090601f831160011461264457600092612639575b50508160011b916000199060031b1c19161760118301555b6102408101518051906001600160401b0382116104355781906123496012860154612f53565b601f81116125e6575b50602090601f831160011461257457600092612569575b50508160011b916000199060031b1c19161760128301555b6102608101518051906001600160401b038211610435576123a56013850154612f53565b601f8111612522575b50602090601f83116001146124a85792826018936103009361242e979660009261249d575b50508160011b916000199060031b1c19161760138501555b61028081015160148501556102a081015160158501556102c081015160168501556102e081015160178501550151151591019060ff801983541691151516179055565b8060405160208185516124448183858a01612d5b565b81016003815203019020557fbcb997a4a7c4d7407d25678685f447ac0cdd1a0cf31d196469ddd0be50efb62761248560405193604085526040850190612d7e565b9261249560208201604435612da3565b8033940390a3005b0151905089806123d3565b906013850160005260206000209160005b601f198516811061250a5750836103009361242e979693600193601897601f198116106124f1575b505050811b0160138501556123eb565b015160001960f88460031b161c191690558980806124e1565b919260206001819286850151815501940192016124b9565b601385016000526020600020601f840160051c810160208510612562575b601f830160051c820181106125565750506123ae565b60008155600101612540565b5080612540565b015190508680612369565b9250601285016000526020600020906000935b601f19841685106125cb576001945083601f198116106125b2575b505050811b016012830155612381565b015160001960f88460031b161c191690558680806125a2565b81810151835560209485019460019093019290910190612587565b909150601285016000526020600020601f840160051c810160208510612632575b90849392915b601f830160051c82018110612623575050612352565b6000815585945060010161260d565b5080612607565b01519050868061230b565b9250601185016000526020600020906000935b601f198416851061269b576001945083601f19811610612682575b505050811b016011830155612323565b015160001960f88460031b161c19169055868080612672565b81810151835560209485019460019093019290910190612657565b909150601185016000526020600020601f840160051c810160208510612702575b90849392915b601f830160051c820181106126f35750506122f4565b600081558594506001016126dd565b50806126d7565b0151905086806122ad565b9250601085016000526020600020906000935b601f198416851061276b576001945083601f19811610612752575b505050811b0160108301556122c5565b015160001960f88460031b161c19169055868080612742565b81810151835560209485019460019093019290910190612727565b909150601085016000526020600020601f840160051c8101602085106127d2575b90849392915b601f830160051c820181106127c3575050612296565b600081558594506001016127ad565b50806127a7565b015190508680612219565b9250600c85016000526020600020906000935b601f198416851061283b576001945083601f19811610612822575b505050811b01600c830155612231565b015160001960f88460031b161c19169055868080612812565b818101518355602094850194600190930192909101906127f7565b909150600c85016000526020600020601f840160051c8101602085106128a2575b90849392915b601f830160051c82018110612893575050612202565b6000815585945060010161287d565b5080612877565b015190508680612146565b9250600585016000526020600020906000935b601f198416851061290b576001945083601f198116106128f2575b505050811b01600583015561215e565b015160001960f88460031b161c191690558680806128e2565b818101518355602094850194600190930192909101906128c7565b909150600585016000526020600020601f840160051c810160208510612972575b90849392915b601f830160051c8201811061296357505061212f565b6000815585945060010161294d565b5080612947565b0151905086806120e9565b9250600485016000526020600020906000935b601f19841685106129db576001945083601f198116106129c2575b505050811b016004830155612101565b015160001960f88460031b161c191690558680806129b2565b81810151835560209485019460019093019290910190612997565b909150600485016000526020600020601f840160051c810160208510612a42575b90849392915b601f830160051c82018110612a335750506120d2565b60008155859450600101612a1d565b5080612a17565b01519050868061206d565b9250600285016000526020600020906000935b601f1984168510612aab576001945083601f19811610612a92575b505050811b016002830155612085565b015160001960f88460031b161c19169055868080612a82565b81810151835560209485019460019093019290910190612a67565b909150600285016000526020600020601f840160051c810160208510612b12575b90849392915b601f830160051c82018110612b03575050612056565b60008155859450600101612aed565b5080612ae7565b015190508680612010565b9250600185016000526020600020906000935b601f1984168510612b7b576001945083601f19811610612b62575b505050811b016001830155612028565b015160001960f88460031b161c19169055868080612b52565b81810151835560209485019460019093019290910190612b37565b909150600185016000526020600020601f840160051c810160208510612be2575b90849392915b601f830160051c82018110612bd3575050611ff9565b60008155859450600101612bbd565b5080612bb7565b60405162461bcd60e51b815260206004820152601760248201527f426174636820494420616c7265616479206578697374730000000000000000006044820152606490fd5b346101c65760203660031901126101c6576004359063ffffffff60e01b82168092036101c657602091637965db0b60e01b8114908115612c70575b5015158152f35b6301ffc9a760e01b14905083612c69565b61032081019081106001600160401b0382111761043557604052565b608081019081106001600160401b0382111761043557604052565b90601f801991011681019081106001600160401b0382111761043557604052565b81601f820112156101c6578035906001600160401b0382116104355760405192612d0d601f8401601f191660200185612cb8565b828452602083830101116101c657816000926020809301838601378301015290565b600435906001600160a01b03821682036101c657565b602435906001600160a01b03821682036101c657565b60005b838110612d6e5750506000910152565b8181015183820152602001612d5e565b90602091612d9781518092818552858086019101612d5b565b601f01601f1916010190565b90600982101561044b5752565b90600782101561044b5752565b9081518152612f17612f03612eef612edb612e9e612e3b612e29612e05612df360208b01516103208060208d01528b0190612d7e565b60408b01518a820360408c0152612d7e565b612e1760608b015160608b0190612da3565b60808a015189820360808b0152612d7e565b60a089015188820360a08a0152612d7e565b60c088015160c088015260018060a01b038060e08a01511660e089015261010081818b0151169089015261012081818b0151169089015261014090818a015116908801526101608089015190880152610180808901519088830390890152612d7e565b612eb16101a08089015190880190612db0565b6101c080880151908701526101e08088015190870152610200808801519087830390880152612d7e565b610220808701519086830390870152612d7e565b610240808601519085830390860152612d7e565b610260808501519084830390850152612d7e565b9161028080820151908301526102a080820151908301526102c080820151908301526102e0808201519083015261030080910151151591015290565b90600182811c92168015612f83575b6020831014612f6d57565b634e487b7160e01b600052602260045260246000fd5b91607f1691612f62565b9060405191826000825492612fa184612f53565b9081845260019485811690816000146130105750600114612fcd575b5050612fcb92500383612cb8565b565b9093915060005260209081600020936000915b818310612ff8575050612fcb93508201013880612fbd565b85548884018501529485019487945091830191612fe0565b915050612fcb94506020925060ff191682840152151560051b8201013880612fbd565b3360009081527fa51945ecba8f4c6b5cca29605887192f197979d006cd586a7af80838543824c8602090815260408083205490927f7c6181838a71a779e445600d4c6ecbe16bacf2b3c5bda69c29fada66d1b645d19160ff16156130975750505050565b6130a03361379e565b918451906130ad82612c9d565b6042825284820192606036853782511561323a576030845382519060019182101561323a5790607860218501536041915b8183116131cc5750505061318a57604861318693869361316a9361315b985198899376020b1b1b2b9b9a1b7b73a3937b61d1030b1b1b7bab73a1604d1b8a860152613132815180928c603789019101612d5b565b8401917001034b99036b4b9b9b4b733903937b6329607d1b603784015251809386840190612d5b565b01036028810187520185612cb8565b5192839262461bcd60e51b845260048401526024830190612d7e565b0390fd5b60648486519062461bcd60e51b825280600483015260248201527f537472696e67733a20686578206c656e67746820696e73756666696369656e746044820152fd5b909192600f81166010811015613226576f181899199a1a9b1b9c1cb0b131b232b360811b901a6131fc8587613777565b5360041c928015613212576000190191906130de565b634e487b7160e01b82526011600452602482fd5b634e487b7160e01b83526032600452602483fd5b634e487b7160e01b81526032600452602490fd5b3360009081527f7d7ffb7a348e1c6a02869081a26547b49160dd3df72d1d75a570eb9b698292ec602090815260408083205490927fa49807205ce4d355092ef5a8a18f56e8913cf4a201fbe287825b095693c217759160ff16156132b25750505050565b6132bb3361379e565b918451906132c882612c9d565b6042825284820192606036853782511561323a576030845382519060019182101561323a5790607860218501536041915b81831161334d5750505061318a57604861318693869361316a9361315b985198899376020b1b1b2b9b9a1b7b73a3937b61d1030b1b1b7bab73a1604d1b8a860152613132815180928c603789019101612d5b565b909192600f81166010811015613226576f181899199a1a9b1b9c1cb0b131b232b360811b901a61337d8587613777565b5360041c928015613212576000190191906132f9565b3360009081527f7d2ff12adb962f8af2796f09b4dfd39c23d7c774bbd4cb0e6564ba0669af2afc60209081526040808320549092600080516020613ac18339815191529160ff16156133e55750505050565b6133ee3361379e565b918451906133fb82612c9d565b6042825284820192606036853782511561323a576030845382519060019182101561323a5790607860218501536041915b8183116134805750505061318a57604861318693869361316a9361315b985198899376020b1b1b2b9b9a1b7b73a3937b61d1030b1b1b7bab73a1604d1b8a860152613132815180928c603789019101612d5b565b909192600f81166010811015613226576f181899199a1a9b1b9c1cb0b131b232b360811b901a6134b08587613777565b5360041c9280156132125760001901919061342c565b3360009081527f37775adb12013835ce20d78b1c52193dd1da3dc792bc1ec9a2d7427221516c8a60209081526040808320549092600080516020613aa18339815191529160ff16156135185750505050565b6135213361379e565b9184519061352e82612c9d565b6042825284820192606036853782511561323a576030845382519060019182101561323a5790607860218501536041915b8183116135b35750505061318a57604861318693869361316a9361315b985198899376020b1b1b2b9b9a1b7b73a3937b61d1030b1b1b7bab73a1604d1b8a860152613132815180928c603789019101612d5b565b909192600f81166010811015613226576f181899199a1a9b1b9c1cb0b131b232b360811b901a6135e38587613777565b5360041c9280156132125760001901919061355f565b600090808252602090828252604092838120338252835260ff8482205416156136225750505050565b61362b3361379e565b9184519061363882612c9d565b6042825284820192606036853782511561323a576030845382519060019182101561323a5790607860218501536041915b8183116136bd5750505061318a57604861318693869361316a9361315b985198899376020b1b1b2b9b9a1b7b73a3937b61d1030b1b1b7bab73a1604d1b8a860152613132815180928c603789019101612d5b565b909192600f81166010811015613226576f181899199a1a9b1b9c1cb0b131b232b360811b901a6136ed8587613777565b5360041c92801561321257600019019190613669565b9060009180835282602052604083209160018060a01b03169182845260205260ff60408420541661373357505050565b80835282602052604083208284526020526040832060ff1981541690557ff6391f5c32d9c69d2a47ea670b442974b53935d1edc7fd64eb21e047a839171b339380a4565b908151811015613788570160200190565b634e487b7160e01b600052603260045260246000fd5b60405190606082018281106001600160401b0382111761043557604052602a82526020820160403682378251156137885760309053815160019081101561378857607860218401536029905b80821161383e5750506137fa5790565b606460405162461bcd60e51b815260206004820152602060248201527f537472696e67733a20686578206c656e67746820696e73756666696369656e746044820152fd5b9091600f81166010811015613897576f181899199a1a9b1b9c1cb0b131b232b360811b901a61386d8486613777565b5360041c9180156138825760001901906137ea565b60246000634e487b7160e01b81526011600452fd5b60246000634e487b7160e01b81526032600452fd5b60001981146138bb5760010190565b634e487b7160e01b600052601160045260246000fd5b600982101561044b5752565b600782101561044b5752565b156138f057565b60405162461bcd60e51b815260206004820152601060248201526f125b9d985b1a590818985d18da08125160821b6044820152606490fd5b1561392f57565b60405162461bcd60e51b815260206004820152601c60248201527f4261746368206e6f7420696e2070726f636573736564207374617465000000006044820152606490fd5b1561397b57565b60405162461bcd60e51b815260206004820152601b60248201527f4e6f74207468652064657369676e617465642072657461696c657200000000006044820152606490fd5b604051906139cd82612c81565b81610300600091828152606080602083015280604083015283818301528060808301528060a08301528360c08301528360e08301528361010083015283610120830152836101408301528361016083015280610180830152836101a0830152836101c0830152836101e083015280610200830152806102208301528061024083015261026082015282610280820152826102a0820152826102c0820152826102e08201520152565b6001600160401b0381116104355760051b60200190565b80518210156137885760209160051b01019056fefbd454f36a7e1a388bd6fc3ab10d434aa4578f811acbbcf33afb1c697486313c2a5f906c256a5d799494fcd066e1f6c077689de1cdb65052a1624de4bace99bfa264697066735822122088cdf386a78781fa78852ee5f1716ca63a43f7f208f33ad42a586f4b3f3c79fe64736f6c634300081400332f8788117e7eff1d82e926ec794901d17c78024a50270940304540a733656f0d",
  "linkReferences": {},
  "deployedLinkReferences": {}
}